:020000041000EA
:1000000000B5324B212058609868022188439860DF
:10001000D860186158612E4B002199600221596106
:100020000121F02299502B49196001219960352056
:1000300000F044F80222904214D00621196600F024
:1000400034F8196E01211966002018661A6600F04E
:100050002CF8196E196E196E052000F02FF8012189
:100060000842F9D1002199601B49196000215960AB
:100070001A491B48016001219960EB211966A021F2
:10008000196600F012F800219960164914480160C1
:100090000121996001BC002800D000471248134993
:1000A000086003C880F30888084703B5996A0420EC
:1000B0000142FBD001200142F8D103BD02B5186610
:1000C0001866FFF7F2FF186E186E02BD00000240BE
:1000D000000000180000070000035F00212200005C
:1000E000F4000018222000A00001001008ED00E03C
:1000F00000000000000000000000000074B24E7A12
:1001000000200420F7010010C3010010C5010010F9
:10011000C1010010C1010010C1010010C101001097
:10012000C1010010C1010010C1010010C701001081
:10013000C1010010C1010010C9010010CB01001065
:10014000CD010010CD010010CD010010CD01001037
:10015000CD010010CD010010CD010010CD01001027
:10016000CD010010CD010010CD010010CD01001017
:10017000CD010010CD010010CD010010CD01001007
:10018000CD010010CD010010CD010010CD010010F7
:10019000CD010010CD010010CD010010CD010010E7
:1001A000CD010010CD010010CD010010CD010010D7
:1001B000CD010010CD010010CD010010CD010010C7
:1001C00000BE00BE00BE00BE00BE00BEEFF3058054
:1001D000103800BEF2EB8871183B0110343B01105F
:1001E0003402001090A31AE700201F49086006C8D7
:1001F00081F3088810471D48006800282FD10DA4FE
:100200000ECC002902D000F012F8F9E71849194A7B
:10021000002000E001C19142FCD1174988471749ED
:1002200088471749884700BEFDE701C901C29A42C5
:10023000FBD37047343B0110C0000020AC0F0020FE
:10024000204A01100000042000000420204A011070
:10025000001004200010042000000000704709482E
:1002600002F02CFE0047000008ED00E0000000D086
:10027000B00F00201060002061170010550300101F
:10028000891800105756000006005250ABB3605357
:10029000F829011006005250861C0302002A0110A2
:1002A000060052505422A29D082A01100500525007
:1002B000DE65F468204A0110F8B5C0460448054BD5
:1002C00010B5834203D0044B002B00D0984710BDDB
:1002D000AC0F0020AC0F00200000000006480749CA
:1002E000091A8B10C90FC91810B5491003D0044B57
:1002F000002B00D0984710BDAC0F0020AC0F0020A1
:100300000000000010B5074C2378002B09D1FFF73F
:10031000D5FF054B002B02D0044800E000BF0123AD
:10032000237010BD1058002000000000302701107D
:10033000054B10B5002B03D00449054800E000BF71
:10034000FFF7CCFF10BDC04600000000145800208D
:100350003027011010B5BAB004A804F055FE04AB64
:100360000022002109A804F07DFD0F4C0F4B2168ED
:100370001A6802A809AB04F0BFFD0D4A236802A960
:1003800012680C4804F0F2FD012204AB09A916A87A
:1003900004F004FB01A916A804F060FB16A804F001
:1003A00035FD01203AB010BD400400204404002077
:1003B0006C5800206858002010B505F0A3FC014BD4
:1003C000186010BD6C580020024B18688007C00FE1
:1003D0007047C04600C0064070B5EFF3108C72B68F
:1003E0000D4D2B68002BFCD0BFF35F8F0724CB088B
:1003F000C618C05C01230C40A3401C00044003420B
:1004000007D103433370BFF35F8F2C608CF31088E8
:1004100070BD100001F03CFA2C0100D00021044B0B
:10042000044ABFF35F8F02C39342FAD17047C046BC
:10043000000100D0800100D0044A1078431CDBB2D8
:10044000172B00D9102313707047C04648040020B2
:1004500001238340002904D0034A1360034A136038
:100460007047034A1360FBE780E200E000E100E030
:1004700080E100E0024B10309B688000C05870475C
:1004800000ED00E070B50D00EFF3108672B60F4A74
:100490001368002BFCD0BFF35F8F0D4B10309B68AF
:1004A00084001B590B4A934203D09D4201D001F0B6
:1004B00007FA074B9B681D51BFF35F8FBFF35F8F38
:1004C0000022024B1A6086F3108870BD240100D010
:1004D00000ED00E0CD010010F0B5DE4657464E4677
:1004E0004546E0B50C0083B0EFF3108972B6584A68
:1004F0001368002BFCD0BFF35F8F564B9A68030044
:1005000010339F00D559544A9046954232D0A542A7
:1005100043D0524EAA1B2F2A2CD801228240924649
:1005200051464F4A12681140019151464D4A11609F
:10053000BFF35F8FEFF305829346002A33D1012387
:100540002A009A4393689C4208D177E04B005B18DD
:100550009B00F3189968A1422AD01A00062151562F
:100560000029F3DA019B002B19D052463E4B1A604A
:100570003B4B1A60374B9B68DD51BFF35F8FBFF376
:100580005F8F0022324B1A6089F3108803B0F0BCF1
:10059000BB46B246A946A046F0BD1500EAE7524662
:1005A000304B1A60E6E79342C9D001F089F9C6E7FB
:1005B00006215956002921DB4A00501880003418C2
:1005C0008046A0689860E079D8710620205698711E
:1005D000002824DBA488F01A64052415444400197B
:1005E000E0240005400D24022043988052181F4B40
:1005F0009200B6181A781970B271B3E759460029FB
:100600000FD1FF3191711A49918018490A789A7176
:10061000184A9B1B5B415A43120D0A70A2E7164809
:10062000E3E7164A1649D21A083A5002400D014330
:100630009980144952080A43DA8093E706215156FB
:1006400013000029B8DA5A46002AEAD14546DCE709
:10065000240100D000ED00E0CD0100104C0400208A
:1006600000E100E080E100E080E200E00B600020BB
:1006700001BDFFFFAAAA000001BD00008604002002
:1006800000F0FFFF00F8FFFF70B5EFF305810124D4
:100690000443EFF3108C72B6214A1368002BFCD090
:1006A000BFF35F8F1F4B05001F4AED1A6D416A4370
:1006B000120D1E4D8900AE6852B27658A6421CD06B
:1006C0000621595691421CD012215956914222D0EE
:1006D0001E215956914220D02A2159560324914275
:1006E00010D0134B19781A708171BFF35F8F0022FD
:1006F0000B4B1A608CF3108870BDAB680D4C5C50CE
:10070000EFE700246100091989005B18FF21997146
:1007100009499980E5E70124F4E70224F2E7C0469D
:10072000240100D04C040020AAAA000000ED00E043
:100730000B600020CD01001001BDFFFF054B064AF4
:100740001360064A136053609360D3601361536172
:10075000936170478080808000E400E004E400E062
:10076000024B9C46614489000160704740000034A0
:1007700010B50400FFF760FE01002000FFF7F0FF56
:10078000FF232371BFF35F8F10BDC04610B5040077
:10079000FFF752FE01002000FFF7E2FFFF23A380D6
:1007A000BFF35F8F10BDC04683680B4810B5844609
:1007B00061446244090112019A18591854684B683F
:1007C00001209C4201D802D00020C0B210BD1268A6
:1007D0000B689A42F9D8F7E7FFFFFF0F0A4B196839
:1007E000EFF3108072B60A68002AFCD0BFF35F8F67
:1007F0001B68BFF35F8F00221A6080F3108840BF30
:10080000002000217047C046E85E0020F8B557463A
:100810004E464546DE46E0B599460CAB1C780DAB1E
:100820001B78060090469A460768002C11D1BC7BC5
:10083000002C42D065003B682D19033D59194B78B7
:10084000BB73002B00D1FB7300238B704B700B70BC
:1008500004E065003B682D19033D5919B2682A4B25
:1008600094464246E3181B0163441A604A465A60A4
:100870000A9A9A600B9ADA6000238B704B700B70A7
:100880007B7B9B46002B2BD022005946B8687B68A7
:1008900098473A68002816D05B4658465B005B4490
:1008A0005519033BA870D118D35C002B00D06B7096
:1008B0005B460C707B73A34513D0F0BCBB46B246BD
:1008C000A946A046F8BD5B465B005B44033BD318DA
:1008D0009C705119525D002A00D05A705B460B7013
:1008E0007C7342464B46307D00F004FB051E06D06B
:1008F0005346002B03D12100306800F01FFD0E9BF2
:10090000002BDAD01D70D8E7FFFFFF0FF0B5DE46F1
:1009100057464E4645460023E0B58BB00893674BDB
:100920008200D45800239B46099000F093FA626835
:1009300006000F00EFF3108572B61368002BFCD091
:10094000BFF35F8F23689C465B7B9946002B00D1E9
:1009500069E0A2685A4B90464B441B0198444346B9
:100960001A685B6810001900801BB941002900DC7F
:1009700063E0099800F0BEFA0023002298460023A5
:100980000692079300239A466368BFF35F8F5A4627
:100990001A6085F310885346002B08D10028C4D173
:1009A0000BB0F0BCBB46B246A946A046F0BD089BC2
:1009B000414618024B461843D047626806000F00B4
:1009C000EFF3108572B61368002BFCD0BFF35F8F76
:1009D000002F50DB33003B4302D02369002B61D151
:1009E0002368D97B002907D04A00521819688C4621
:1009F00049466244033A51709A7B002A01D14A4623
:100A00009A734A46DA734B46E168013BCA5C01328D
:100A1000CA545B4623616368BFF35F8F5A461A600E
:100A200085F3108881E70023002298460023069270
:100A30000793002300209A46A6E7002902D1002848
:100A400000D096E70021604600F0F6FB43461A68A6
:100A50005B680692079343469B689A464346DB6869
:100A60009846E3684B44013B1B7808931B02034301
:100A70002361002088E72369002BB1D0069A079BE9
:100A8000921BBB41002B15DB5946049101210391B8
:100A90004946029141460191514620000091FFF7DD
:100AA000B5FEB6E700F0D6F932003B0012184B4114
:100AB000002BE9DA0122034B5242E5E7805E002079
:100AC000FFFFFF0FFFFFFF7F10B5144C6368002B83
:100AD00004D00A211248FFF743FE10BD2300114A3B
:100AE0001021206800F0C2FA032000F0A7F90320CB
:100AF00000F06AFA03200C4900F0B6F9FFF79CFCFD
:100B00000A4B9C4603232375D0231B061B686044B5
:100B10006375074B80006060DC60DAE794040020B6
:100B2000E85E0020A90700100D0900104000003405
:100B3000805E0020F0B54E464546DE465746E0B59D
:100B400085B0019310AB1B780600039300239946F0
:100B5000984600927268EFF3108B72B61368002B00
:100B6000FCD0BFF35F8F3568AC7B002C3DD06700B5
:100B70002B683F19033FDB195A78AA73002A00D16A
:100B8000EA73B168474A8C4600980199A21812018D
:100B90006244106051600E9991600F99D160424695
:100BA0009A705A701A706B7B9A46002B67D022009D
:100BB0001900A8686B6898472A68002852D05346E5
:100BC00050465B005344D719033BB870D118D35C2F
:100BD000002B00D07B7053460C706B7354454FD084
:100BE000F3681B19013B187800E000207368BFF31D
:100BF0005F8F42461A608BF31088002C4FD04B4613
:100C0000002B08D10002204305B0F0BCBB46B24621
:100C1000A946A046F0BD039B002B3ED00E9B0020B2
:100C20000F999847030004000D000B4335D00029AD
:100C30000ADA009A019B121BAB4100920193002B30
:100C40000ADB039B994685E700F004F924184D411F
:100C500000940195002DF4DA0123134C5B420093BC
:100C60000194EEE753465B005344033BD3189C705A
:100C7000D119D25D002A00D05A7053460B706C73A4
:100C8000307D009A019B00F035F981460028A7D0FD
:100C90002100306800F052FBA2E70020B4E70120F9
:100CA0004042B1E7FFFFFF0FFFFFFF7FF0B5EFF31B
:100CB0000583CE46474680B505000C0085B0002B65
:100CC00012D02C4A0020536A9C4203D8926A013009
:100CD000AA4204D305B0C0BCB946B046F0BDE01A84
:100CE000421E9041C0B2F5E7234E02930193234B7D
:100CF0000200009330000B00FFF71CFF031EE0DD35
:100D000020BF7168EFF3108772B60A68002AFCD022
:100D1000BFF35F8FDAB294463068427B62451DD0E4
:100D2000FF221A405100894601689144884649468D
:100D3000414403398978002913D0F1681B0A884699
:100D40004244013A1278DBB29A420FD07368BFF383
:100D50005F8F00221A6087F31088B2E7FF221A40E3
:100D6000EBE732699342F1D13161EFE7614600F080
:100D7000E5FAEBE70040054094040020DD07001091
:100D8000F0B5EFF30582D6464F4646461000C0B593
:100D90001038EFF3108872B6214C2368002BFCD07A
:100DA000BFF35F8F0123190081401E4D1F0069634F
:100DB000AA461D4D29601D4D2E78AC463500C54014
:100DC0002F402B4209D1BFF35F8F276088F3108833
:100DD000E0BCBA46B146A846F0BD5346144D5F6A22
:100DE00083005D59AF420ED3124A8E439B58624630
:100DF0001670BFF35F8F0022226088F31088002BEB
:100E0000E6D09847E4E70C4B92009C466244136896
:100E10001360BFF35F8F0023236088F31088D7E748
:100E2000280100D0004005403C7005400C600020C7
:100E3000305F002070580020D03F054010B5010001
:100E4000024A0348FFF7C8FA10BDC0464427011004
:100E500005600020034B596A0A00986A596A8A4261
:100E6000FAD170470040054070B504000D00EFF363
:100E7000108672B61A4A1368002BFCD0BFF35F8F3E
:100E8000002D1BD02000FFF7F5FA164981420AD049
:100E90002000FFF7F7FA01212000FFF7D9FA01231C
:100EA000A340114A1360114BA400E550BFF35F8FBC
:100EB00000220B4B1A6086F3108870BD0B4BA2000A
:100EC000D5500122A2400A4920000B7893430B70B1
:100ED0000449FFF701FB00212000FFF7B9FAE5E71D
:100EE000280100D0810D00103860054070580020A6
:100EF0000C600020F0B54F46D6464646C0B5070008
:100F00002C4C616A0D00A66A616AA942FAD18B4233
:100F100008D805D00120E0BCBA46B146A846F0BDCD
:100F2000B242F7D9EFF3108A72B62348016800295C
:100F3000FCD0BFF35F8F0125BD4020491D4C884682
:100F4000097889462943C9B28C46414660460870F3
:100F5000391D1B48890065630A51B9000B50216A8D
:100F60000020294219D0616A0800A66A616A81429C
:100F7000FAD18B4219D801D1B24216D8CC4516D03D
:100F80000C4B1F201D625D6301230740BB400D4ACF
:100F90001E38136043464A461A70BFF35F8F002223
:100FA000054B1A608AF31088B5E70020F5E70120A9
:100FB000F3E7C04600400540280100D00C60002047
:100FC000305F002080E200E0EFF3108C72B60A4937
:100FD0000B68002BFCD0BFF35F8F01238340074ACF
:100FE0000748136202789A430270BFF35F8F0023B1
:100FF0000B608CF310887047280100D0004005403A
:101000000C60002070B5050014001600002915D0F2
:101010000C00002A12D080686B6898472968002865
:101020000ED073009B196200033B1219CB18033AD0
:101030009C7088188A5C002A15D10670200070BD4B
:1010400063001B197200033B9219CB18033A9E7080
:1010500088188A5C002A02D104703400EEE75A70C6
:1010600004703400EAE75A700670E7E730B5836031
:101070000023CCB243730133047342608373C4739F
:101080000D000068012C06D9421C0133DBB213703D
:1010900003329C42F9D1FF2129404B00591800230B
:1010A00040180338437030BDF8B5CE4647460600B9
:1010B0000C0080B5002907D04D0003686D18033D72
:1010C0005A195778002F04D12000C0BCB946B04649
:1010D000F8BD7900C91903398846434459788946CF
:1010E00000215970517073683A0021008068984758
:1010F0003368002814D042469A18947059195B5DE1
:10110000002B00D053700F70270049463000FFF7C6
:10111000CBFF390002003000FFF774FF0400D3E773
:10112000424641465D19AF709A185B5C002B00D0B7
:101130006B701470E9E7C046F0B557464546DE4689
:101140004E46E0B50D006B0001685B19DF1E040020
:10115000C85D83B00192CA19002850D043001B1803
:10116000033BCB185E78B446002E1AD1019E002EA8
:1011700042D0E67B002E04D073009B19CB18033BB2
:101180005D70A37B002B00D1A573E57300282FD1E0
:101190000023537003B0F0BCBB46B246A946A0463C
:1011A000F0BD72006244033A89184A7890460022E2
:1011B0004A7091465A70010032002000FFF722FF6A
:1011C00043468246002B07D05B0021684344033B23
:1011D000CB185A78002A16D1424651462000FFF714
:1011E00011FF2168019BCA19002BC2D10028CFD062
:1011F00043001B18033BCB1800219970C8E7019BE3
:10120000002BB6D1C4E7500080180338091848787D
:10121000834648464870587041462000FFF7F2FE6A
:10122000594680462000FFF73FFF4146020020005C
:10123000FFF7E8FE8046CFE7F0B557464546DE4665
:101240004E46E0B583B00191457B04006B00006819
:101250005B19DF1EC15DC219002952D04B005B181B
:10126000033BC3185E78B446002E1CD1019E002EAD
:1012700044D0E67B002E04D073009B19C318033BB7
:101280005D70A37B002B00D1A573E573002931D1DC
:10129000002328005370617303B0F0BCBB46B24614
:1012A000A946A046F0BD72006244033A8018427815
:1012B00090460022427091465A7020003200FFF79B
:1012C000A1FE43468246002B07D05B0021684344C1
:1012D000033BCB185A78002A17D1424651462000CA
:1012E000FFF790FE019B01002068C219002BC0D1BE
:1012F0000029CDD04B005B18033BC3180020987029
:10130000C6E7019B002BB4D1C2E750008018033818
:10131000091848788346484648705870414620006E
:10132000FFF770FE594680462000FFF7BDFE41469C
:1013300002002000FFF766FE8046CEE770B504008D
:1013400000292CD0437B8B422ED0056848004018E2
:10135000033828188278002A21D053009B18033BB9
:10136000EA5CEE188A4202D11BE0002A08D0530042
:101370009B18033BEB185A788A42F6D142785A7090
:1013800000230122837043702000FFF7D5FE617BAC
:1013900002002000FFF736FE6073012000E000200D
:1013A00070BD43783370EBE701221900FFF7C4FEEC
:1013B00060730120F4E7C04630B50C2083B000F024
:1013C000B3F9FFF701F800280ED0994B994A1A603B
:1013D0005A609A60DA601A615A619A61DA611A6237
:1013E000954A5A6203B030BD944CA06700F0A4F94E
:1013F0000122934B1A60636C012BFCD10322914BA9
:101400001A608E4A936B012BFCD1013301218E4A65
:101410008E480093043300F037F905238C4A00937B
:1014200001218C4800F030F98B4B5A68FF2A02D812
:10143000802252005A6080227D4C824B2169120129
:10144000854D1A60002907D0606901F091FD431CA9
:101450005800C0180338FDD2E0217F4B02201A68E3
:101460001140802252012A4311601968484003212B
:101470000140116004219A681142FCD08022802131
:1014800092012A4309011160802252005A60734B75
:101490002361734B5968FF2900D85A600321684AB9
:1014A0006F4B116002399A681142FCD0E0201A6833
:1014B0001040802252011A431060186848400321EE
:1014C00001400220116066498A681042FCD08022E7
:1014D00092011343802212011A608022614B520054
:1014E0004A606361604B5968FF2900D85A608022C6
:1014F0005E4BE16912015C4D1A60002907D06069FA
:1015000001F036FD431C5800C0180338FDD2E0221C
:1015100055490B681A4080235B012B431A608023D6
:1015200080229B012B4312011A608022414B520002
:101530004A60E3614E4B5968FF2900D85A60802207
:101540004C4B216A12014A4D1A60002907D060698C
:1015500001F00EFD431C5800C0180338FDD2E022F4
:1015600043490B681A4080235B012B431A60802398
:1015700080229B012B4312011A60802380225B0092
:101580004B602C4BD20223623B4B5968914200D2F4
:101590005A608022394B616A1201374D1A60002966
:1015A00007D0606901F0E4FC431C5800C018033800
:1015B000FDD2E02230490B681A4080235B012B43A7
:1015C0001A60802380229B012B4312011A60802322
:1015D000DB024B60184B6362294B5A68FF2A02D822
:1015E000802252005A608022264BA1691201244DAC
:1015F0001A60002907D0606901F0BAFC431C58004A
:10160000C0180338FDD2E0221D490B681A40802320
:101610005B012B431A60802380229B012B43120124
:101620001A6080235B004B600E4BA361DAE6C04674
:10163000AC590020006CDC021BB7000000800040A9
:101640003CB0004030B00040002F6859008002409C
:10165000008C864700C0024030800040001BB7006D
:101660003C800040405973075480004054B0004013
:101670006080004060B000406C8000406CB0004072
:101680004880004048B00040F8B5040021481D00E3
:1016900017000E0001F06CFC0100380001F068FC3E
:1016A000069B29041B0319432368002B20DB1A4BDC
:1016B0001A4DE21853425A4180235B019C461203A3
:1016C000174B62441A60174B1A601700AB689F43B0
:1016D000FBD1C022231D92011A4321232660A06062
:1016E00013602368002BFCDA0823E1601360F8BD67
:1016F0003F2322681340B342D9D1A3681B051B0DB9
:101700008342D4D1EE22E368D20213408B42CED181
:10171000EDE7C046001BB7000040FDBF00C0004021
:1017200000E0004000F000408023024A9B00034399
:10173000D362704700800540AA23064A1B0113604C
:101740002F230549D360054B19605368002BFCDA41
:101750007047C0460040024000B0FA0000600240FE
:101760002C4B2D4A70B51A602C4A2D4B2D491A600E
:1017700014008B689C43FBD12B4D2C4EB54208D2F4
:10178000013E761BB60808CD984723000134B342CA
:10179000F9D1FFF711FE264A214B1A60214A9368BE
:1017A000DB43DB01DD09002BF9D14022214B224C28
:1017B000224E9A675A671A67DA66B44208D22368DB
:1017C0002000002B20D00834FEF7E0FFB442F6D30F
:1017D0001B4E1C4CC022A168300002F021FBA66009
:1017E000FEF71CFEFEF7AAFFFFF76EF9164C174E28
:1017F000B44208D2013E361BB60808CC98472B00ED
:1018000001359E42F9D170BD0834FEF7B1FFB442F4
:10181000D5D3DDE700E00040BFCDFBFEFE7F3C00FE
:1018200000F0004000C000408C0F00209C0F002002
:10183000FFFFFF0100F00140840F00208C0F00200B
:101840000000002000ED00E09C0F0020AC0F002005
:1018500000BEFDE7094A03001068002805D00849CA
:10186000C3188B4207D81360704706480449C31851
:1018700010608B42F7D901204042F5E73C5E002022
:10188000000004201060002010B5FFF7E1FFC04603
:101890000FB400B5084883B002F0A2FB049B002BF4
:1018A00007D005A91800019101F0E8FA034802F0F9
:1018B00097FB0120FFF7CCFF682701107827011064
:1018C00010B50148FFF7E4FF7C2701109A4200D2CF
:1018D000885470477047C046F8B557464E4645464F
:1018E000DE46E0B599460A9B07009A460D9B88465E
:1018F000934615000B9E9B0710D10C9B9E420DD268
:101900009D1B14000E005D4422004B460134310043
:101910002020B847A542F7D1B0460B9E002E27D015
:10192000444675195346AA1B013E985D21004B465B
:10193000B847002EF6D123002C0098460D9B9B073C
:101940000FD55B46E51A0C9BAB420AD94646984632
:1019500022004B46310020200135B8470134A8450C
:10196000F6D82000F0BCBB46B246A946A046F8BD5A
:101970002C00E3E7F0B54F464646D646C0B584B0E6
:1019800098460EAB1B78129F994694460D9C109B6F
:10199000119EBA0725D4002E4BD19C4200D3BFE044
:1019A00001223A4092461F2C00D9B8E00C9A551EED
:1019B000302201E0202C03D001342A55A342F9D86B
:1019C0005246002A0DD0A6420BD9202C44D00C9AA6
:1019D000551E302201E0202C3ED001342A55B4425D
:1019E000F9D1FA064DD57A053FD4002C39D10F9B99
:1019F000102B00D179E00F9B022B00D18AE030231D
:101A00000C9A012413704B46002B3FD02D230C9AC7
:101A1000135501340C9B624600930397434602968C
:101A20000194FFF759FF04B0E0BCBA46B146A8469E
:101A3000F0BD012215003D40AA463A422FD04A4649
:101A4000002A02D10C323A4200D0013E9C42BAD266
:101A50001F2CABD9202E27D92024FA06DAD57A05F7
:101A600003D4A3422DD0A6422BD00F9B102B32D0F3
:101A7000022B20D0202CCDD030220C9B1B191A70A9
:101A80000134202CC6D04B46002BBFD17B070DD490
:101A90003B07BFD520230C9A13550134BAE79C426B
:101AA0009FD21F2C00D881E720249AE72B230C9A81
:101AB00013550134AEE7202CACD00C9B1B1901341C
:101AC0003AE0631E012C92D00F9A102A2AD0022AE3
:101AD0002FD01C00D0E7BB060ED4202C9AD00C9B34
:101AE0001A19013478231370C4E7BB060DD4782388
:101AF0000C9A01241370BFE7202C00D18AE75822EA
:101B00000C9B1B191A700134B4E758230C9A01245A
:101B10001370B1E70C9A603301241370ACE72024F2
:101B200000265EE7023CBA06E9D40C9A12191C00A2
:101B3000D8E70C9A9246534462221A709AE7C0463C
:101B400010B5002800D110BD02F0FEF9FBE7C04639
:101B5000F0B5DE4657464E464546E0B59BB09B463F
:101B6000249B89469846259B0B900C924046424602
:101B700019009A4601F0C5FC002800D0D8E00122E7
:101B800040465146774B524201F0B6FC002800D047
:101B9000CEE0012240465146734B524201F096FC82
:101BA000002800D0C4E0002200234046514601F046
:101BB0008DFC002800D0B9E1424653460A920993B1
:101BC0008023289ADB001A400E92289A1A4201D1EB
:101BD000062326930A9A099B1600134300D0C7E0F8
:101BE000289B002500261B0500D49BE100230D93B4
:101BF000269A0D9B9A4200DC9FE1D01A431E269341
:101C00008023289ADB001A430023002728920D9393
:101C1000279B0024BB4200D9DC1B0223289A1A40D0
:101C20000E92289A134203D07B427B415B421C40B8
:101C30000D9B002B07D00A9809992A00330001F068
:101C4000E4FB0A900991002200234046514601F02E
:101C50003DFC002805D08020000684460999614497
:101C60000991289A414B0B9D13400493269B0A9A95
:101C70000293099B03940092019349465B46280016
:101C80000C9A00F08BF90400002F62D0289B2200F0
:101C900098061F23C0179843631C984649465B4625
:101CA0006530A8470D9B0025DA179C18DB0F9A4674
:101CB0005440013F01E0202D13D00AAA94461F236F
:101CC000200063440A2101355E1901F051F93031D9
:101CD000317020000A2101F04BF926000400092E82
:101CE000E9D805230693002304930A33039353464C
:101CF00005970B9F029312AB009342465B46494601
:101D000038000195FFF736FE0E9B0400002B20D013
:101D10000C9BC51A279BAB421BD91E0022005B46B9
:101D2000494620200135B8470134AE42F6D810E0CC
:101D3000289B42460493279B49460393269B0B9876
:101D400002935346009201935B460C9A00F026F9E9
:101D5000040020001BB0F0BCBB46B246A946A0461A
:101D6000F0BDC046FFFFEF7FFFFFEFFFFFF7FFFF74
:101D7000734B099F9C467800400D604401F0D4FBF2
:101D8000704A714B01F05FFB704A714B01F034FBFC
:101D90003B03704A1B0B1A4304000D003000110076
:101DA0006D4B002201F01FFB6C4A6D4B01F04BFBA9
:101DB00002000B002000290001F01EFB01F0CCFB0B
:101DC0000D9001F0B1FB674A674B04000D0001F074
:101DD0003AFB0022654B01F00FFB01F0BDFB644AAA
:101DE0000600644B2000290001F02DFB04003000A8
:101DF0000D000F9601F098FB5F4A604B01F023FB4A
:101E000002000B002000290001F0EDFA02000B0097
:101E100006000F0001F017FB320004000D003B002C
:101E20003000390001F0E8FA002210901191544B73
:101E30002000290001F0E9FA0022524B01F0DCFAFF
:101E400002000B002000290001F0DFFA00224E4BB7
:101E500001F0D2FA02000B002000290001F0D5FAAF
:101E60000D008021040032003B000020C90501F074
:101E7000BAFA02000B002000290001F0BDFA0200AE
:101E80000B001098119901F0C0FA0022314B01F0BB
:101E9000B3FA3E4B0F9C9C4664440022230501F09C
:101EA000D2FA05000E0002000B000A98099901F011
:101EB0000DFB00280AD00D9B2800013B31000D933B
:101EC0000022304B01F0A1FA05000E00C6270D9943
:101ED0002B0063318F42BF4128997F4204370905A7
:101EE00000D495E6334300D182E6099C284A2100BC
:101EF000284B0A9801F0F8FA002808D000222100A7
:101F0000254B0A9801F0E2FA002800D070E6269BE3
:101F1000002B00D17CE60E9B5A1E9341269AD31AC1
:101F2000269375E6002304270D9371E643460A9332
:101F300080231B065344099342E6002326935FE661
:101F400001FCFFFFFB799F501344D33FB3C8608B64
:101F5000288AC63F0000F03F0000F83F61436F63EE
:101F6000A787D23F71A379094F930A400000E03F51
:101F70001655B5BBB16B0240EF39FAFE422EE63F73
:101F800000002C400000244000001840FF03000027
:101F90002D431CEBE2361A3F80842E41F0B54E46AD
:101FA000DE4657464546E0B597B09946209E219FAC
:101FB000229B8346984607910C923B0032003000EA
:101FC000390001F09EFA002800D0A9E1012230007A
:101FD0003900CA4B524201F079FA002800D0E1E002
:101FE000012230003900C64B524201F085FA002828
:101FF00000D0B7E0002230003900C24B01F07CFA7B
:10200000002800D099E0002230003900BE4B01F0DA
:102010005DFA002800D090E0002200233000390053
:1020200001F054FA002800D0B1E000230D93249B66
:102030005B0501D40623984608AB9C461722002472
:1020400030234146624404E0013413550139202C09
:1020500001D00929F8D888463000390001F07CFA0F
:102060004346DA00A94B05009B181A685B68089282
:10207000099301F059FA02000B003000390001F019
:10208000B2F9089A099B01F0DEF90A900B9101F070
:1020900087FA824601F044FA02000B000A980B9975
:1020A00001F0A1F900229A4B0A900B9101F024FA59
:1020B000002800D1C0E001239C46E244504601F0D4
:1020C0002FFA02000B000898099901F005FA002880
:1020D00002D000239A4601354346002B6AD008AB54
:1020E00017269C4608956644554614E001235B423A
:1020F00043440A2128009A4600F03AFF0134303167
:102100003719397028000A2100F032FF092D00D854
:10211000D0E0D0460500202CE8D10EAB9846032332
:10212000249A1340012B00D196E02023249A019396
:102130000392239A434602921EE0249B584604933E
:10214000239B00960197039343460C9A02930799A9
:102150004B46FFF7FDFC17B0F0BCBB46B246A946A4
:10216000A046F0BD249B5B070ED40322694B249943
:102170000192039123990291009358464B460C9A81
:102180000799FFF7A9FBE6E70422634BEFE73B0063
:1021900032000020002101F026F9012306000F0083
:1021A0000D9344E7249B0393239B02930423019301
:1021B0005A4BE1E7280001F0B7F902000B003000AC
:1021C000390001F010F9524B002206000F0001F017
:1021D0007DF90EAB984600280AD100223000390064
:1021E0004B4B01F089F9002802D1EB0700D50135EE
:1021F000202C94D008AA94461723280063440A216F
:1022000001341E1900F08CFE3031280031700A2193
:1022100000F086FE051EEBD10323249A1340012B08
:102220001BD0202C00D180E70D9B002B35D02D2218
:102230004146631C0A5579E700220A980B99344BF2
:1022400001F044F9002800D046E75346002B51D155
:1022500001239C46E2443FE72024239B002BE0D04F
:102260000D9B002B03D1249A0C33134202D0239BE5
:10227000013B2393239BA342D3D908AB9C4617224F
:1022800030236244202C00D14FE7239901341355A9
:102290008C42C6D0202CF8D147E7249B5B0724D47E
:1022A000249A2300120700D440E72022414601333C
:1022B0000A553BE75746089D202C00D12DE7220008
:1022C00030214046002F09D00132B154202A00D1DC
:1022D00023E7D3431B191B18002BF5D10EAB9846EF
:1022E0002E234146541C8B5482E72B224146631C0B
:1022F0000A551BE7DB0700D4EEE6A9E7FFFFEFFF77
:10230000FFFFEF7F65CDCD4165CDCDC180290110A7
:102310000000E03F882701108C270110982701104A
:10232000249B0393239B029303230193004B23E7F6
:1023300094270110F0B5DE464E4657464546E0B5B7
:102340009FB01C00289B91460993C94AC94B8B46F4
:1023500008901A60002900D118E2002320789A46DC
:10236000002800D11AE226001D005C460AE02A007F
:102370006F1C4B46089D2100A8473D000136307870
:10238000002870D02528F2D110239B46083B9A469E
:10239000043B9846023B00219C46721C10781600B4
:1023A0000300203BDBB2102B03D8B34F9B00FB583C
:1023B0009F460300303B092B32D900230A932A2879
:1023C00068D0002398462E283ED00300683BDBB23D
:1023D000122B1CD8A94A9B00D3589F4601230132D7
:1023E0001943DBE7634601321943D7E7434601321D
:1023F0001943D3E75B4601321943CFE75346013215
:102400001943CBE780235B00707819430136030042
:10241000253BDBB2532BAAD8994A9B00D3589F4641
:1024200000270300B800C01901364000C0183378F7
:1024300030381A00303A0700092AF3D90A901800F8
:10244000002398462E28C0D180237078DB001943E2
:102450000300303B721C092B00D8A1E12A2800D1CF
:10246000B2E11600B1E7A346AA462C00D14503D835
:1024700001235B424B449A464B4652465946002044
:10248000089DA84720001FB0F0BCBB46B246A94635
:10249000A046F0BD099B40CB0A96002E03DB507886
:1024A0000993561C8DE72838014370420A9009931E
:1024B0005078561C85E7782800D1DFE1582800D1F4
:1024C0004CE26F2800D14FE3622801D100F030FCCC
:1024D00010230A009A430B92692801D000F0A9FC4E
:1024E0000A230C934B0500D5D0E10B9A80231100F1
:1024F0009B0019408B461A4200D0A1E280231100B4
:102500005B0019408A461A4200D0B6E313005B060E
:1025100000D5EDE2130009991B0601D400F076FC0A
:1025200008C91BB2D8171A18424092B209919346B3
:10253000DA0F1292002B09D1802310220B99DB00B5
:102540000B4091430B91002B00D0E4E20B9A6123E6
:10255000920600D541230EA91F228C46DBB26244AD
:102560000A3B5F461395A34655460C9CB2460D9315
:1025700016000AE03033DBB201357355A74200D2B2
:10258000EDE2202D00D1EAE207002100380000F042
:10259000EFFCCBB20929EDD90D9A94466344DBB226
:1025A000EAE780239B007078194301362FE77078A3
:1025B000682800D1CDE180230136194327E77078E0
:1025C0006C2800D1BFE180235B00194301361EE770
:1025D000462800D19BE10722099B049107339343CE
:1025E0000A9A19000392424602920CC90898009276
:1025F000019309912A004B462100FFF7CFFC0136D9
:102600000500BCE62A006F1C4B46089D21002520D2
:10261000A84701363D00B2E68B0700D4ADE1099B27
:102620002A009A466B1C9846534601CB21009A46D5
:10263000089F4B46C0B2B8470A9B9C466544012B95
:1026400000D886E2089B4746B04626004C4699468D
:102650003A002300013731002020C847AF42F7D1AC
:10266000A1465346340046460993013687E6C046E4
:1026700035230010505E0020A0270110E427011030
:1026800030280110099B04CB9B4643460992002B3E
:1026900000D1C6E013789C46002B00D1BDE3434631
:1026A000013B099A0133D0180A9F130001E08342CD
:1026B00003D05A780133002AF9D1099A0A979B1A54
:1026C0000B9380230A00DB001A400C92194204D0BD
:1026D0000B9B434501D943460B9302231A000A4042
:1026E0000D920B4200D187E16046002800D168E1DD
:1026F0000C9B002B00D10DE1A844C246099B574614
:102700005B1B9846089BB2462A0026004C46994619
:1027100009E023003100551CC8474346585D002896
:1027200000D126E12A009742F3D1A1463D003400B2
:1027300056460D9B002B00D043E15B4601360993C2
:102740001DE6099B1A0008CA9246002B48D0212298
:1027500011438B460EA884461F216144099500222F
:102760000F27A4460D0002E0202A0CD00B003C00ED
:102770001C4020003730092C00D807380132A854FB
:1027800019090F2BF0D86446099D32E0DC4B207804
:10279000089300239A46002800D0E4E5002465E66B
:1027A000434606000A9F9800C01801324000801975
:1027B0001678030030003038303B0928F3D9300058
:1027C000984616000A9700E6099B023604CB90460D
:1027D000D2434046D2171040804609933078F4E542
:1027E000102208009043113210438346002249050D
:1027F000B0D55B4606930823059343460493102304
:1028000003930023029316AB019200932A004B46D8
:1028100021000898FFF7AEF85346050001360993EA
:10282000ADE513789C46002B00D1F7E202235B4212
:1028300037E7202302009A43472A04D180231B0153
:10284000194302239843452801D120231943072225
:10285000099B0491073393430A9A19000392424655
:1028600002920CC908980092019309912A004B46E4
:102870002100FFF76DF90136050080E510230C9368
:102880000C230A009A430B924B0503D501230B9AA4
:102890009A430B92692800D127E6642800D124E6E8
:1028A0000B9A802311009B0019408B461A4200D0DE
:1028B00066E1802311005B0019408A461A4200D06D
:1028C00039E213005B0600D53CE113001B0600D47F
:1028D000A6E2099B04CB1204120C934609935B46B3
:1028E000002B00D09AE10B9A1033110099430B9101
:1028F000520500D492E100239A460B9B06930A9B53
:102900000593434604930C9B039300230CE120237F
:10291000194360E6099B0A9A5B1B98464B46914611
:102920001F00B2462600089C2A003B003100A04749
:1029300043460135585D0028F6D14A463400B94671
:1029400056460A92F5E6C0239B00B078194302363A
:102950005DE5C023B0781943023658E50C230A0020
:102960009A4314331A43103B0B920C934B058DD4AE
:1029700096E7A14634005646DBE60A9A012A00D8BB
:1029800053E26B1E9F18089BB04626004C469946A2
:102990002A002300013531002020C847BD42F7D16D
:1029A000A14634004646099B3A0001CB21009846D7
:1029B0007D1C4B46089FC0B2B84743460136099379
:1029C000DDE40B9B0A9AA8469A4200D8B5E69446E5
:1029D0006544ED1A089B4746B04626004C4699468A
:1029E0003A002300013731002020C847AF42F7D119
:1029F000A14634004646A0E60B9A0A99531C914220
:102A000000D814E24B199B1A1F00089BB2462600FF
:102A10004C4699462A002300013531002020C84742
:102A2000BD42F7D10A9BA14601330B93099B3400A9
:102A30001B7856469C466046002800D058E67CE647
:102A40000722099B07339343013294469C44624614
:102A50005F6809921A68FB171093119310981199E7
:102A6000030053400E930B007B400F9394460E9A45
:102A70000F9B121A8B410E920F93FB0F624612931B
:102A800000233A439B463DD00B9A6123920600D522
:102A900041230022DBB20EA90A3B8C4692460D93DD
:102AA00043461F3262441395159655460E9E0F9F5E
:102AB000A24690460C9C14930CE03032D2B24346AE
:102AC00001355A55BB4500D18AE1202D00D18AE15C
:102AD00006000F00220000233000390000F086FAC3
:102AE000D2B2092AE9D90D9B9C466244D2B2E6E7EC
:102AF000FF23099904C913401A00099117E5C0463C
:102B0000D51800100B9A1033110099430B91520500
:102B1000BAD500239A460B9B06930A9B059343461E
:102B200004930C9B0393129B02935346019316ABA1
:102B30002A00009321004B460898FEF71BFF013640
:102B400005001CE4FF22099B02CB11408B46099330
:102B5000C5E65346454609930136FFF710FC564635
:102B60005C46AA46139DD6E708230C930B910B995C
:102B7000642800D084E60B9B5B0500D586E6B4E4B0
:102B80000722099B07339343013294469C446246D3
:102B900009921A685B6810009B4613005A4613435B
:102BA00007D10B9A1033110099430B91520500D5B0
:102BB000A1E60B9A6123920600D541230022DBB2E5
:102BC0000EA90A3B8C4692460D9343461F3262443F
:102BD0005F461295A34655460400B24690460C9EA9
:102BE00013930DE03032D2B2434601355A550023DB
:102BF000BB4200D100E1202D00D100E104000F0014
:102C0000320000232000390000F0F0F9D2B2092A86
:102C1000E8D90D9B9C466244D2B2E5E70B9A61234A
:102C2000920600D54123DBB20EA90A3B1F228C4637
:102C30000D93230062445C461295170055469B464F
:102C4000B2460C9E08E03033DBB201357B55B4420E
:102C50000ED3202D0CD004003100200000F088F9A4
:102C6000CBB20929EFD90D9A94466344DBB2ECE765
:102C700056465C46AA46129D3FE6099B1A0008CAC2
:102C8000D91713925A184A409246DA0F1292002B23
:102C900008D1802310220B99DB000B4091430B914C
:102CA000002B2BD10B9A6123920600D541230EAA4B
:102CB0001F279446DBB20A3B0D9567445D46099396
:102CC000A3465446B2460C9E08E03033DBB20135D1
:102CD0007B55B4420ED3202D0CD0040031002000CF
:102CE00000F046F9CBB20929EFD9099A944663441A
:102CF000DBB2ECE756465C46AB460D9D0B9B2A00CB
:102D000006930A9B21000593434604930C9B089865
:102D10000393129B013602935B46019316AB00931B
:102D20004B46FEF727FE139B05000993FFF727FB91
:102D300002230C931AE7099B04CB92461293002AB4
:102D400008D1802310220B99DB000B4091430B919B
:102D5000002B2BD10B9A6123920600D541230EAA9A
:102D60001F279446DBB20A3B0D9567445D460993E5
:102D7000A3465446B2460C9E08E03033DBB2013520
:102D80007B55B4420ED3202D0CD00400310020001E
:102D900000F0EEF8CBB20929EFD9099A94466344C2
:102DA000DBB2ECE756465C46AB460D9D0B9B2A001A
:102DB00006930A9B21000593434604930C9B0898B5
:102DC0000393002302935B46019316AB00934B469B
:102DD000FEF7D0FD129B050009930136FFF7CFFAED
:102DE000B44200D871E6149B54460E960F97AA463B
:102DF0009846159E139D8EE6A64200D8FBE6139BCF
:102E000056469846AA465C46129D76E508C9D817EC
:102E10001A1842400991FFF78AFB00230B9350E4F4
:102E2000099B04CB9346099359E52F00BBE50B930F
:102E300001E6063B0C939AE60CB410B584B006ACE0
:102E400008CC0A000094010004480394FFF772FACA
:102E500004B010BC08BC02B01847C046CD18001022
:102E600000B583B0009313000A0001000248FFF789
:102E700061FA03B000BDC046CD18001010B5094A74
:102E80000300146884B0002C08D001220091064889
:102E9000524203A9A047012004B010BD01F0A0F8E0
:102EA0000020F9E7505E0020411B0010014804217A
:102EB000014B1847C0040020DD2E0010142310B56C
:102EC0000100188804331B88984710BD162310B5DD
:102ED0000100188802331B88984710BDF8B5474693
:102EE000CE4680B50F1E19D0142399460433040032
:102EF0000025012698464B461888434621681B88C2
:102F0000984701C4431E9841013540420640AF42F4
:102F1000F1D13000C0BCB946B046F8BD0126F8E793
:102F2000124A936F9B0815D29066D166002905D08E
:102F3000FFE7FFE7FFE7516F106F704704B580218F
:102F40000906C2175140002800D0C8430FF0D8FB33
:102F5000002104BDF0B5146E556E576F166FFFF764
:102F6000E3FF1466556657671667F0BD000000D092
:102F7000114A936F9B0813D210665166002905D041
:102F8000FFE7FFE7FFE7516F106F704704B50028B8
:102F900001D00020C0430FF0B3FB002104BDC046A8
:102FA000F0B5146E556E576F166FFFF7E5FF146698
:102FB000556657671667F0BD000000D094464A4A30
:102FC000926F9208624601D228E0C046F0B5464EA4
:102FD000346E756E776F366F00F020F89446424A73
:102FE00014665566576716676246F0BD94463E4ABA
:102FF000926F9208624601D254E0C046F0B53A4E54
:10300000346E756E776F366F00F04CF89446364A22
:1030100014665566576716676246F0BD002B24DBC1
:1030200011D000293EDA00B5C943404200D1013138
:1030300000F038F8C943404200D10131DB4352422D
:1030400000D1013300BD002AEBD1002801D10029B5
:1030500005D00020C90FC90701D1C043410800B500
:103060000FF036FB0022002300BD00B500290ADB6B
:10307000DB43524200D1013300F014F8C94340420F
:1030800000D1013100BDC943404200D10131DB43D1
:10309000524200D1013300F005F8DB43524200D127
:1030A000013300BD002923D1002B18D1002A0CD0F8
:1030B000BC460D4F38667A6600210023FFE7FFE724
:1030C000FFE77A6F386F67467047002801D00748DE
:1030D000010000B50FF0FCFA0022002300BD020041
:1030E0000B00002000217047000000D0FFFFFFFF11
:1030F000002B00D0BFE0130C28D1002AE7D080B409
:10310000114F39667A66FFE7FFE730B4040C7B6F36
:10311000396F1B0423433B667A66FFE7FFE7FFE74F
:10312000C04684B27B6F3D6F1B0423433B667A66C7
:10313000FFE7FFE7C04600232C042D0C7A6F386FA1
:1031400000196941B0BC7047000000D0F0B594464A
:103150000025140E01D112020835140F01D11201FD
:103160000435940F01D192000235D40F01D15200E1
:103170000135D40B0134254F7C66254C3C660E0C82
:1031800093B2FFE7FFE7FFE73C6F6643360C770338
:10319000BE467343DF0B5B04C01AB941130C734383
:1031A000DB18C91ACE086643360CB64493B2734393
:1031B0001F0F1B01C01AB941130C73431F0B1B05D2
:1031C000C01AB941860D8F023E436643360C092D65
:1031D00024DB520A7243801A7703460A6643360C90
:1031E00016235B1BDE40DF40BF1964466643821B2B
:1031F0007046043506330100D940A840C01900D3F9
:103200000131A24206D20023F0BD0000000000D030
:10321000FFFFFFFF121B0130F3D3F1E709277F1BEC
:10322000FE406446A2B27243801A00D20139220CD9
:103230007243130C1204821A99410B007046043534
:1032400013370100F940A840801900D30131002B49
:1032500002D1A2420AD2F0BD013000D30131121BCB
:10326000FAD2013BF8D1A24200D2F0BD013000D326
:103270000131121BF7E7F0B51C0C00D080E00CB454
:1032800000251C0A04D11B02160E33431202083516
:103290001C0B04D11B01160F3343120104359C0B88
:1032A00004D19B00960F334392000235DC0B02D110
:1032B00092185B4101351C00971864410134464F58
:1032C0007C66464C3C660E0CFFE7FFE7FFE7C04616
:1032D0003C6F6643360C7703BE4697B27743C01BFC
:1032E00000D20139C01B00D201399FB27743C91BFC
:1032F000C91B170C77437E04FF0B801BB941CE0816
:103300006643360C0C2D33DBB644120B1F053A43D3
:103310001B0B97B27743C01B00D201399FB2774392
:10332000C91B170C77433E043F0C801BB941860D27
:103330008F023E43664329277F1BFE400C3D7746A4
:10334000AF40BF1930BCA2B2ABB272437343801A14
:103350009941220C7243130C1204801A9941020005
:103360000B000137001BA941F9D2781E0021F0BDE6
:103370000C277F1BFE4077467F0BAF40FF19E0E72D
:1033800000245D1C07D0144F7D663966FFE7FFE718
:10339000FFE7FFE73C6F95B29EB265436643401B73
:1033A000B141150C1E0C6543664336042F0C3E4399
:1033B0002D04401BB141994204D202000B002000B1
:1033C0000021F0BD01D19042F7D3801A9941013418
:1033D0009942F2D3F6E70000000000D0FFFFFFFFA4
:1033E00048404140484018B41B4B5B68FC46019381
:1033F00008BD04DF7F36001018B4174B1B68FC466D
:10340000019308BD00DF893600109446134A926F7D
:10341000920809D2624618B40F4BDB68FC46019350
:1034200008BD0CDF413900100C4AF0B5146E556E22
:10343000576F166F6246FFF7EEFF084A146655662F
:1034400057671667F0BD18B4034B9B68FC460193A1
:1034500008BD08DFE537001010560020000000D03E
:10346000FFB550404240504059404B40594000E069
:10347000FFB5154F4C00640D03D0BC4204D10C03C2
:1034800014D80020090D09055C00640D03D0BC426E
:1034900004D11C030AD800221B0D1B0501264B403A
:1034A00009D44B4003D58B4200D18242FFBD9942E3
:1034B000FCD19042FFBD0B43DB1803431343F5D00F
:1034C000C9434918FFBD0000FF07000000B5FFF722
:1034D000CFFF804100BDC04600B5FFF7C9FF01D94D
:1034E000002000BD012000BD00B5FFF7B9FF01D9E4
:1034F000002000BD012000BD00B5FFF7B1FF8041F5
:1035000000BD012040054A00121804D85A001218C4
:1035100001D800207047012070470020704700004C
:103520000021002805D17047C1174840401AFAD041
:10353000C90713B5064B1B6898470CBC441CA24036
:103540001005120B0349091B09051943114310BD4E
:10355000E45E00201F04000010B54C00620D8023C3
:10356000D218DB00D21A5B057E2A10DD9E3A13DAF0
:10357000CC170903490819435242D1406400013471
:103580001532202A05DAD0400843604310BD0020E0
:1035900010BD0846604310BDC80FC018013810BDEB
:1035A00018B4044B5B6AFC46019308BD24DFF13A72
:1035B0000010000010560020132370B51D78012D57
:1035C00015D010DD1C48FFF781FC1C4C0100802247
:1035D000200000F025FC022D06D01948FFF76EFCF4
:1035E000184B186070BD154C174BA364F5E7164BCC
:1035F000124C23606360A360E36023616361A36195
:10360000E36123626362A362E36223636363A36390
:10361000E36323646364A364E36423656365A36570
:10362000E36523666366A366E36623676367A36750
:10363000E367A364D1E7C04653440000105600205E
:103640004C330000E45E00204D36001007B56046A4
:1036500001880A0A0230DF2AFAD1C9B2820804D3EB
:10366000028840880004104300E00068014A50507E
:10367000039007BD105600200FB403BC0CBCF0B57E
:103680000124E407634000E0F0B50C0DCF0F661E87
:103690003605891B640503D3C943404200D3013179
:1036A000640D03D0661CF60A07D0E41B00207F00DF
:1036B000791C89078912803C24031D0DDF0F6E1EC3
:1036C00036059B1B6D0503D3DB43524200D3013308
:1036D0006D0D03D06E1CF60A07D0ED1B00227F0093
:1036E0007B1C9B079B12803D2D032F1B661B58D410
:1036F000A446202E46DA20371400BC401D00BD40F1
:10370000F24033412A4380185941CB0F05D0C943B9
:10371000C043002264425041514162464D0D28D1C0
:103720000D0D07D100281FD0241940414941013A0D
:103730000D0DF9D0640006D3013000D30131002C07
:1037400001D140084000013A0BD4941CE40A04D192
:1037500012051144DB071944F0BDD907204B19436A
:1037600000E0D9070020F0BD0029DDD1002CDBD11D
:10377000F0BD0132C6074008CD0728434908002E96
:10378000E1D0D9E73C2E29DA203E40371400BC4076
:1037900000D00124F24014431A00BB401C43D3174D
:1037A000ACE7AC46202F08DA20360400B4400D0008
:1037B000B540F84039412843A5E73C2F0CDA203FBB
:1037C00040360400B44000D00124F840044308000F
:1037D000B1400C43C117EAE710001900002494E738
:1037E0000000F07FF0B50C0D661E3605891BE60A59
:1037F0006405640D02D0651CED0A04D0002001218F
:103800000905803C2403A4461C0D671E3F05DB1BF5
:10381000E70A6405640D02D0651CED0A04D000229D
:1038200001231B05803C24037740644497B484B291
:1038300096B27443070C7E43150C6F4380B2684305
:10384000361802D3012000043F183004350C00194B
:103850007D41844688B29AB250430C0C62431F0CDF
:103860007C438EB27E43921902D301263604A419FA
:103870001604170C3618674101BC81B29AB2514345
:10388000040C62431B0C5C4380B25843121802D3F1
:103890000120000424181004130C401863412D1853
:1038A0005E410020474106BC88B293B258430C0CDD
:1038B0006343120C544389B251435B1802D3012174
:1038C0000904641819041A0C091862416D1856414C
:1038D0000020474118BCF902720D1143F0026A0D35
:1038E0001043ED020A0D03D16D1940414941013BDE
:1038F000124E9B1B7600B3420ED26D0007D30130EF
:10390000002671416646354301D1400840001B0541
:10391000C918E4072144F0BD0BDA013306D10130A8
:1039200004D101314F0D01D04908F2E7E107002031
:10393000F0BD013631050020EBE70000FF03000079
:10394000F0B51C0D671E3F05DB1BE70A6405640D1F
:1039500002D0661CF60A04D0002201231B05803C1D
:103960002403D0252D060026F6432E661E096E661A
:10397000CE0FF619B44649004F0D02D07E1CF60A50
:1039800003D000200021403F3F033E1BB600B4445B
:10399000013F7F05C91B49082E6F013676089C023E
:1039A000950D25437543ED137543AD1301356D102A
:1039B000F603761B0CB4CC02450D2C43A2B2B3B275
:1039C0005A43270C7B43350C6F43A4B26C431B193D
:1039D00002D3012424043F191C041D0CA4187D41AA
:1039E00024196D41009A91B2ACB26143170C7C432B
:1039F0002B0C5F4392B25A43A41802D30122120443
:103A0000BF182204230C52187B41019C6C431B19E4
:103A1000520ED9010A434401A01A81B2B2B25143F5
:103A200003145A43360C734387B27743D617D2191F
:103A300000277E4136049B191704160C7F185E413F
:103A40007316ED18F301002680337541A90F06D1D6
:103A50006400690AE8055B0A184309D22FE00422D2
:103A6000944480337541A90AA8059B0A184326D3BC
:103A7000404149412404009A019B0D005543641BB9
:103A80004343E41A95B286B27543170C7E43030C88
:103A90005F4392B25A43B61802D301221204BF18F0
:103AA0003204330C52197B4152429C41002C02D407
:103AB0000022013051414008CA071043490802B0B2
:103AC0006246D7079210084BD218084B9A4203D28D
:103AD00012058918C919F0BD0020002A01DC39003F
:103AE000F0BD01331905F5E7FD030000FE070000F6
:103AF000002200B5203200F004F8080000BD0000EC
:103B000000220B150AD410B5944600F031F81414B5
:103B1000013400DA0021CB17144C2047002000218B
:103B200070476244343A0CD40C2A07DA04009140FE
:103B3000904052422032D440214310BDD843D94353
:103B400010BD203207D40C4694405242203211411D
:103B5000D040204310BD0800C917203203D4524280
:103B60002032104110BD1800190010BD233B001079
:103B70000A0DCC0F531E1B05C91A520503D3C943A6
:103B8000404200D30131520D03D0531CDB0A07D051
:103B9000121B00206400611C89078912803A1203FD
:103BA000014BD21A70470000FF030000514343430A
:103BB000C9188C46110C83B24B4310B4040C6143FA
:103BC00092B280B2504362431C041B0C001910BC1B
:103BD00059411304120CC018514161447047000050
:103BE0004840414048400E4B5B6818470C4B1B68EF
:103BF00018470C4A936F9B0802D2094BDB681847A1
:103C0000F0B5146E556E576F166FFFF7F6FF054A45
:103C10001466556657671667F0BD014B9B681847D9
:103C200010570020000000D0491A002808D108468B
:103C300070470000C10FC90700D54042002817D0C7
:103C4000F44603B40B4B1B68984706BC81409E3872
:103C50004042803107D20B0607D04900490AC0050F
:103C60001043084360470130F8E7490A8902F5E745
:103C700070470000E45E002041000A0E80231B060E
:103C80007E2A0BDD9E3A0BDAC1174002400818432A
:103C90005242D040490001314843704700207047EC
:103CA000C00FC01801387047C0420DD300B54000A6
:103CB0004008002100F012F8002801D4404200BD65
:103CC0008020000600BD0000034BDB69FC4618475E
:103CD0001CDF793D0010000010570020014B5B6A8B
:103CE0001847000010570020132310B512481C7805
:103CF000FFF7ECF80100012C0AD003DD80220F4809
:103D000000F08EF80E48FFF7D9F80E4B186010BD82
:103D10000A4C5422200000F083F80B4B6365A36526
:103D2000E36523666366A366E36623676367A36749
:103D3000E3672362E361E5E7534600001057002084
:103D40004C330000E45E00204D3D001007B5604696
:103D500001880A0A0230DF2AFAD1C9B2820804D3E4
:103D6000028840880004104300E00068014A505077
:103D7000039007BD105700200021C2158032803209
:103D800001D0024A1047002070470000CD2A0000F1
:103D900010B504000DF07EFA002804D0034B04197E
:103DA0009C4200D810BD0248FDF772FD00000420BF
:103DB000D029011010B50C000DF0C4F9002804D072
:103DC000034B04199C4200D810BD0248FDF760FD6A
:103DD00000000420D029011010B50C000DF050FD9A
:103DE000002804D0034B04199C4200D810BD02489F
:103DF000FDF74EFD00000420D029011010B50DF094
:103E000053FA10BD01480421014B1847D00400208B
:103E1000DD2E0010014B1B6818470000D004002065
:103E2000014B5B6818470000D0040020030010B568
:103E3000080011001B68984710BDC046030010B56C
:103E4000080011001B68984710BDC046F0B5DE465B
:103E500057464E464546E0B585B017001C000600A3
:103E60000D00FCF7F7FF0023304A12184B41002BDE
:103E700058DB2F4908008A460EF04AFC01906B1C63
:103E800003D130000DF070FF0500002C25D1294B27
:103E90009846294B1C68002C15D0002F20D1274FA5
:103EA00002E02469002C0ED02368002BF9D03B6877
:103EB000002B01D0A342F4D120002A003100C047DA
:103EC0002469002CF0D1019B002B27D105B0F0BC58
:103ED000BB46B246A946A046F0BD194B9846D8E766
:103EE000164B994602ABDF1D0A239B4602E024696C
:103EF000002CE8D02368002BF9D04B461B68002B20
:103F000001D0A342F3D12A0031002000C0475B4614
:103F10000122390020003B70C047E8E750460EF010
:103F2000CFFBD3E70122074B5242A2E740420F00EA
:103F3000840F00203D3E0010E45D0020E85D00207D
:103F40002D3E0010FFFFFF7FF0B5CE46474680B5FF
:103F500083B06B460600DD1D2870FCF77BFF002355
:103F60001A4A12184B41002B2BDB194908008846CE
:103F70000EF0CEFB174B81461C68002C14D0164F58
:103F800002E02469002C0FD02368002BF9D03B6895
:103F9000002B01D0A342F4D1200001222900FFF719
:103FA0004DFF2469002CEFD14B46002B05D130008A
:103FB00003B0C0BCB946B046F0BD40460EF080FB31
:103FC000F5E70122054B5242CFE7C04640420F00C1
:103FD000840F0020E45D0020E85D0020FFFFFF7FEC
:103FE00070B504000DF0C0FE0023010005000122A1
:103FF0002000FFF72BFF084B1C68002C06D06368DD
:10400000002B05D098472469002CF8D1280070BDFA
:104010002469002CF3D1F9E7E45D002010B50248D3
:1040200000F004F810BDC046A05E002030B50025A9
:1040300089B004000922002101A80095FFF7EAFEDB
:104040000922002105A80495FFF7E4FE4B236A46E8
:104050006846137004A90D220EF02AFB15210822D0
:1040600020006944FFF7DCFE09B030BD014B186841
:104070007047C046382A0110F0B5454657464E46AF
:10408000DE46E0B589B0129D0400894690461F00C7
:10409000002D68D050239A46AA44504600F0BEFF37
:1040A000002860D0002C5ED0236864269B46002B3D
:1040B00007D0300009B0F0BCBB46B246A946A046C6
:1040C000F0BD484606F0A0F900284ED04346002B2C
:1040D00049D0002F47D05B46079307AB05935B465B
:1040E000049303932B006A46583343CB43C2534691
:1040F000390048462A6D5B6806F02AFA00284DD13F
:10410000C82101202A6EEB6D9847206000284CD012
:10411000484606F0AFF92B0064332668079A0093EF
:1041200041462B0001F08CF8C4222368B050985807
:1041300000282BD07033190001F084F9061E16D127
:1041400048232468EA5C7033E2542900702220007E
:10415000FFF766FE4B461A68C023E250296E0798A7
:104160006B6D9847A5E70B26A3E7C826A1E7236850
:10417000002B11D0C4269A59002A07D0484606F0D1
:1041800079F92368995901F06DF923681800296EAF
:104190006A6D9047002323600126DFE703000222B7
:1041A000673B934303D00A28F6D10A26D6E7672651
:1041B000D4E7C04670B51A4D8AB05022194902ACF6
:1041C00006002800FFF72CFE200000F01DFF2B004A
:1041D000503307CC07C306CC06C36C46200000F062
:1041E000BDFF2B00643306CC06C36A462724002398
:1041F00012191000137006F047F900280CD16B4615
:104200001B191A786C232900EA5430007022FFF73A
:1042100007FE30000AB070BD00F02CFF0022F1E76D
:1042200090550020402A0110F8B504000D0016003A
:10423000002819D00368002B16D0C427DA59002AA9
:1042400012D0C022985805F0B1FC00280CD0236889
:10425000D859002808D0002D09D03200290000F0DC
:1042600087FF431E984101E096204000F8BD0B20D7
:10427000FCE7C04670B5041E12D00368002B0FD0B7
:10428000C4255A59002A0BD0C022985805F08EFC3C
:10429000002805D023685859431E9841C0B200E059
:1042A000002070BD002808D00368002B05D0C42270
:1042B0009858431E9841C0B270470020FCE7C046A2
:1042C00030B5030085B00800002B3DD01A780A2ACB
:1042D0003CD81F4992008A5897465A6B016A92004F
:1042E00052580020511E8A4139215A5405B030BD20
:1042F0005A6B0168F3E75A6B8169F0E75A6B816882
:10430000EDE75A6B0169EAE75C68250023002200AB
:10431000210043350295423401354133403210319A
:104320000195009407F0A2FEE0E75C6825002300F9
:10433000220021002335223421332032103101950F
:10434000009408F0EFF8D1E70B20CFE70120CDE78C
:10435000902A0110F0B5C64600B5040098B00028B8
:1043600000D19CE003780A2B00D95AE1AE4A9B00A9
:10437000D3589F46436B0A6A9B009B58002B08D07A
:10438000210082681031406806F08AFA051E00D0CC
:104390009DE0002584E0436B0A689B009B58002B3E
:1043A000F7D08168002340680AAA06F099FB051E31
:1043B000EFD09223FF33984216D10022593BFF3BA6
:1043C000E2546DE0436B8A699B009B58002BE0D060
:1043D000010082681031406805F05EFB051ED8D0F0
:1043E000F623FF3398425BD000F044FE58E02023D0
:1043F0004068C35C002B00D071E02223C35C002B1B
:1044000000D09DE02123C35C002BC2D010300AAA4B
:1044100004A907F09DFF051EE6D160680AA908F00F
:104420005DF9051E00D1E5E008200121285608F0BD
:10443000EDF80600032800D0CEE0280018225830FE
:1044400004A9FFF7EDFC2E72002529E04223406805
:10445000C35C002B5CD1C369002B03D04023C35C39
:10446000002B22D14423C35C002B00D082E04323E5
:10447000C35C002B8DD0C26A0AA9103007F0AAFCD9
:10448000051EB1D10E9A0F9B606808F073F90028E1
:1044900000D17EE7232301220025C25400E00B2532
:1044A000280018B080BCB846F0BD816A103007F013
:1044B00025FD051E00D097E76068816A08F00EF9B7
:1044C000002802D022230122C2546068CAE7574B59
:1044D000984200D088E739230022E254E0E708F050
:1044E000D1F8061E606800D187E731007060F2697C
:1044F0001030283107F056FE051E00D08AE030004B
:104500001022F1690930FFF78BFC3572606874E79F
:10451000103004AA0AA907F0D9FB051E00D063E7F2
:104520000E9A0F9B606808F013F9002806D020232C
:104530000122C2546B461A7C2123C25460688AE768
:10454000103004AA0AA907F0B5FE051E00D04BE7FB
:10455000606804A908F0C2F8051E06D01822403091
:104560000AA9FFF75DFC02232B7222230022606858
:10457000C25447E702000AA93032103007F074FC39
:10458000051E00D030E70E9A0F9B606808F004F912
:10459000061E3DD0012383846068836B002B00D10D
:1045A00065E725230025984601276B00416B5B19C1
:1045B000DB00C91808F092F8002807D0434660686D
:1045C000F754836B0135AB42EFD850E76068013593
:1045D000836BAB42E9D84AE76468102206A96846B3
:1045E000FFF71EFC03212000049A059B08F048F900
:1045F000002555E76468102206A96846FFF710FCFD
:1046000002212000049A059B08F03AF9002547E7AB
:1046100060682CE73100606808F046F800F02AFD79
:104620003EE701253CE7C046BC2A011059020000C4
:10463000F0B5C646030000B500282BD0002929D0CC
:104640000200442084460138002480462427383262
:1046500009E0092D18D0507800281CD101344033CE
:104660004032A14217D01078002814D01D78082DB0
:10467000EFD15E68356C2D020DD16046305C0028AC
:1046800009D14046305CE7E75D682E6A002E02D112
:10469000E85DE1E7002080BCB846F0BDF0B5C64655
:1046A00000B5040084B0002800D19CE04378002BC2
:1046B0000FD10378082B68D0092B1AD03922825CDD
:1046C000002A08D00A2B00D95DE1B0499A008A5827
:1046D0009746012B05D00024200004B080BCB846CA
:1046E000F0BD03780A2B00D94DE1A9499A008A58F8
:1046F000974624234068026AC35C002A00D0CEE0BB
:10470000002BE8D003E0486807F0CEFF606808F0AF
:104710000FF8011EF7D124236068C154C2E0A068DD
:10472000A16A266B062B00D1DAE0072B00D125E128
:104730002500B0471035A26A6068290006F0FAF833
:104740000400002CC8D000F095FCC5E72100A0684B
:10475000236B10319847BEE7A068236B9847BAE7F0
:10476000606806F0E5FA8B4B04009842E9D1B2E7A5
:104770003923E35CE16A226B002B00D1ADE0A06835
:104780009047A8E7236B9847A5E74068036C1B0296
:1047900007D14433C35C002B03D14333C35C002BEC
:1047A00099D04223C35C002B20D0202300279846B9
:1047B000212608F003F8051E17D04346EF5463681E
:1047C00028009B69E26AA95D9847AB5D002B00D188
:1047D00090E0280007F03AFF002800D08AE001238B
:1047E0002B726068E5E70B2476E760684023C35CC2
:1047F000002B13D0C568002D2BD022260027AB5DDF
:10480000002B08D0C369AF55002B04D0816AE26A3F
:104810002800984760682D68002DF0D14423C35CC0
:10482000002B16D0C568002D13D025232426002781
:104830009846AB5D002B09D0436AAF55002B05D0DD
:1048400041462800E26A695C984760682D68002D3F
:10485000EFD14323C35C002B00D13CE72327002684
:104860000BE063682800D96AE26A1B6AEE55984734
:104870006068290007F018FF606807F0AFFF051EA9
:10488000EFD128E73922825C036B002A2FD1002068
:10489000984720E7406884E724234068C35C002BE6
:1048A00000D034E72023C35C002B34D03A4E0021E3
:1048B00007F02EFF051E2BD063682800E16A9B6974
:1048C0009847B0421CD00021280007F097FF60688D
:1048D000290007F0E9FE6068E9E700209047FAE662
:1048E000250010350A002900B04724E7236BA06893
:1048F0009847F0E66068290007F0D6FE606858E740
:104900000121280007F07AFF01232B726068CEE7AF
:1049100020236068C5542123C35C002B00D1DAE654
:10492000C568002D26D02526022702E02D68002D1F
:1049300020D00823EB56032BF8D1C369E16A280085
:104940009847A855002804D0280007F077FF606832
:10495000ECE7636829009846102260316846FFF74B
:104960005FFA01214046AA6DEB6D07F089FF2F72B7
:104970006068DBE721230022C254ACE62500E26A2E
:10498000B0471035D7E60124A6E6C046E82A011054
:10499000142B01102103000034080000F0B50400BE
:1049A0000F0016001D00B3B000284BD0002949D0DD
:1049B000180000F033FB002844D0002E42D0902293
:1049C00023490EA8FFF72CFA90220EA92000FFF72A
:1049D00027FA68466760E66006F0EEFA20003422A7
:1049E00069461830FFF71CFA00231A4A2969226722
:1049F000636765612B68B0019847A060002824D0E8
:104A0000002500E0A068AB013100C018013500F0BE
:104A100019FAAE42F6D120004C3000F007FA80229D
:104A20000D4BA35000230432A350A268002A07D0E4
:104A30006269002A04D0E268002A01D08822A354C7
:104A4000002000E00B2033B0F0BD0A20FBE7C04699
:104A5000702B011000CA9A3B3146001070B5041E3D
:104A60001ED000291CD00369C2680120934200D3E4
:104A700070BDA2689D01521951600221250011806C
:104A80000021013318351087D1622800236106F018
:104A90009DFA002806D1236D002001332365E7E746
:104AA0000B20E5E7280006F09BFA0028F3D0DFE7AB
:104AB000F0B5CE46474680B5040099B000283BD0FB
:104AC00006001836300006F081FA0025002805D0CF
:104AD000280019B0C0BCB946B046F0BD300006F0A1
:104AE0007FFA002825D104AF3D000AA806F064FA39
:104AF00034220AA93000FFF793F9236D60699C46C0
:104B0000636EE16C98468CC88CC588C888C560689F
:104B100063460390A06E42460290A06D0190606DC6
:104B20000090300006F08AFD051ED1D000F0A2FAF8
:104B3000CEE700F09FFAD6E70B25C9E7F0B54E4661
:104B40004546DE465746E0B504009046994683B098
:104B5000002800D18EE0406805F028F8002839D000
:104B6000260020001836FFF7A3FF300006F01AFBDE
:104B7000071E00D07BE0E3680025002B1ED0382301
:104B80009A46A04B9B46A368AA019B1852469A5C82
:104B9000002A13D01A780A2A1CD8594692008A583B
:104BA00097461A0030005968343206F06FFE0190C3
:104BB000002823D1E3680135AB42E4D84B46424696
:104BC000300006F093FE8823E35C002B00D1B6E0B2
:104BD000012B51D000F04EFA0127380003B0F0BC91
:104BE000BB46B246A946A046F0BD1A00300059683F
:104BF000343206F01BFE01900028DBD000F03AFAB8
:104C0000019FEAE71A0030005968343206F09AFA38
:104C100001900028CED0F1E71A00300059683432F4
:104C200006F0CEFD01900028C4D0E7E71A0030005E
:104C30005968343206F094FD01900028BAD0DDE7BF
:104C40001A00596830003432103107F00DFC019021
:104C50000028AFD0D2E71A00596830000023343260
:104C6000103107F091F901900028A3D0C6E700F0B9
:104C700001FAB2E70B27B0E70022A368E1689C467F
:104C80000025904600291CD0383291469222FF32EE
:104C900092460EE03100FFF713FB051E01D0504590
:104CA0004BD101239C46E168E044A368884500D3CA
:104CB0009EE09C46434698014B466044C35C002BF3
:104CC000E8D18423E258043B6046E3589847002823
:104CD00033D00022E3689046002B2ED0382399462B
:104CE0009223FF339A460CE03100FFF733FB051E99
:104CF00001D0504521D101239C46E368E04498450A
:104D00007AD243464A469801A3681818825C002A62
:104D1000EAD138220026904609E0FFF7BFFC051EC5
:104D20000BD1E36801369E4200D356E7A368B00179
:104D300018184346C35C002BEFD12F004DE700222B
:104D4000A368E1689C460025904600291BD03832B4
:104D500091469222FF3292460DE03100FFF7B0FA01
:104D6000051E01D05045E8D101239C46E168E0448E
:104D7000A36888453ED29C46434698014B46604412
:104D8000C35C002BE9D18423E258043B6046E3581E
:104D900098470028D1D00022E3689046002BCCD061
:104DA00038239A469223FF339B4616E03100FFF7E3
:104DB000D1FA002804D0584502D0134B98421FD195
:104DC000A0684844FFF76AFC051EB6D101239C4643
:104DD000E368E044984500D3FFE643469B019946CB
:104DE0005346A0684844C35C002BDFD12F00F4E693
:104DF0009C4666E79C46C6E7002B9ED0A36888E7E2
:104E00000700EAE6402B01105902000070B5041EAD
:104E100009D00225226F636F2000FFF78FFE030089
:104E2000AB43F7D070BD0B20FCE7C04610B500289F
:104E300005D020220021FEF7EDFF002010BD0B2041
:104E4000FCE7C04600280BD00B23038000234163FE
:104E5000436083608362C3620363038700207047FB
:104E60000B20FCE7F0B5C64600B506000F009046E3
:104E70001C0086B0002835D0002B33D005F05AF83E
:104E800023006A4605900C3303CB03C205A82168B2
:104E90006268A36805F050F8051E1CD102AD280019
:104EA00004F07CFE3300380006CD06C333004146D3
:104EB00005AA04F0F5FE051E16D1310022000320DC
:104EC000B4600C3105F08EFE051E0DD105A805F06D
:104ED00087F8002801D000F0CDF8280006B080BC8B
:104EE000B846F0BD0B25F8E700F0C4F805A805F0BA
:104EF00077F80028F1D0EEE7F0B54746CE4680B50A
:104F000004000E00170098469FB0002827D0002903
:104F100025D0002A23D0002B21D002AD280005F097
:104F2000FFF823002A0003CA03C31000914605F0CE
:104F3000D1FA280005F0F4F8230006CD06C34B464D
:104F4000200000933A004346310005F0F1F8041EBA
:104F500007D120001FB0C0BCB946B046F0BD0B243D
:104F6000F7E700F087F800F085F8F2E7F0B5C646FD
:104F700000B504000D0016001F009EB0002824D0CC
:104F8000002922D0002A20D0002B1ED0FFF76EF877
:104F900002AB984620601800FFF70CF950220C492C
:104FA0004046FEF73DFF43462000009332003B00A1
:104FB0002900FFF761F8041E04D120001EB080BC58
:104FC000B846F0BD00F056F8F7E70B24F5E7C04609
:104FD000002C011010B5FEF7EDFE10BD10B5FEF768
:104FE000FBFE10BD10B5FEF709FF10BD10B5FEF7B2
:104FF000CFFE10BD020030B5024B32CB32C212CB15
:1050000012C230BD502C0110020030B5024B32CB21
:1050100032C212CB12C230BDE004002000280DD0F5
:105020000368002B0AD04368002B07D0C368002B0D
:1050300004D08068431E9841C0B200E00020704751
:10504000084B1B78002B09D0074B1A78002A02D096
:10505000064B1878704701321A70F9E7044B18783C
:10506000F8E7C046096000200A600020285E0020A2
:10507000642C01100021084B00201980002100221F
:105080009860D960054B06491A700978054B19706C
:10509000054B1A707047C046005600200A60002079
:1050A00094320110285E00200960002070B50400D1
:1050B00084B000281BD0694601200CF02BF8002892
:1050C0001BDB01990220009E00290EDB029D002DB2
:1050D0000FDB00230A4A3000FEF768FD2A00EB17B9
:1050E0008018594120606160002004B070BD0B2021
:1050F000FBE733000B43F8D0EBE70220F5E7C046AF
:1051000000CA9A3B70B5040084B000281BD06946E1
:1051100000200BF0FFFF00281BDB01990220009EFE
:1051200000290EDB029D002D0FDB00230A4A300010
:10513000FEF73CFD2A00EB178018594120606160A2
:10514000002004B070BD0B20FBE733000B43F8D008
:10515000EBE70220F5E7C04600CA9A3B0023036054
:105160000371704710B5C96F02F0D0FC10BDC04686
:10517000F0B504000D008FB0002855D0002953D0A1
:10518000006800F09FFD00284ED06668002E4BD0CE
:10519000B469280023699847F26903000590002A42
:1051A00002D005A89047059B8027F2591069A822D4
:1051B0009200944600937269B16F604406AB03F0AD
:1051C00023FB00281ED0A368280006A99847336A4D
:1051D00005000400002B01D006A8984780237A22FE
:1051E000F358B25C1869012A21D0A8239B009C4681
:1051F000F16F604402F08AFC2840C4B201235C4095
:10520000E0B212E0F3591869A8239B009C460B4BAF
:1052100002960193059B604400937269B16F06ABDF
:1052200003F022FB0028CED101200FB0F0BDA8234F
:105230009B009C46604402F039F8DFE7655100109E
:10524000F0B545464E46DE465746E0B58846050071
:1052500091461C0089B0002800D1DAE0002900D175
:10526000D7E0006800F02EFD002800D1D1E04B46C9
:10527000002B00D1CDE01B78002B00D1C9E0002C21
:1052800000D1C6E06A486F6808F08AF8002800D1AB
:10529000BFE085682E008436756008F033F98423FA
:1052A000E85018339A46AA4453464846B3600CF077
:1052B0005BFD01303C2800D9A3E04B463C215D4A10
:1052C0005046FDF7B9FD8023EF50FA2328009B00DC
:1052D0005022EB6721002830FEF7A2FD237A3A69BD
:1052E000022B00D19EE0DE239B00D358AB67002346
:1052F00040465149EB612B6200F0F4FC002800D1DC
:105300007FE04268AA61002A7BD02300494638002A
:1053100008F04EFB6862002878D03A69474BD05AB3
:10532000411CD152032101F059FEE1223B69920058
:10533000995880239946EB5828611869A8239B0047
:105340009C460623904600934A789B460B781202AF
:105350001A438B78C9781B041343090619432A6939
:105360007B69604401F09EFDE323414602003869F9
:105370009B00C358415800F01FFC002841D03A69F7
:105380002F4BD05A411CD152052101F027FEA821F4
:105390004A4689008C46AB5841461B6968611A0031
:1053A0003B696244595806A88946696A05928A464B
:1053B000210000F023FC5946069A0391019202A9AC
:1053C0008A8A514601AB9A800B69494600934A7814
:1053D0000B7812021A438B78C9781B041343090611
:1053E00019436A692B69059801F092FDE323414650
:1053F000020038699B00C358415800F0DDFB0028CB
:1054000008D1686A002801D000F0BEFA300000F030
:1054100053FA0026300009B0F0BCBB46B246A9469C
:10542000A046F0BDDF239B00D358AB675FE7C046C3
:10543000905E00209C2C0110682C01109815000033
:105440009A150000030010B50800002B08D00029B1
:1054500006D0596850222831FEF7E2FC002010BD2A
:105460000B20FCE7F0B5D6464F46464604000D003B
:10547000C0B5002804D0006800F024FC002806D144
:1054800001242000E0BCBA46B146A846F0BD6368DE
:10549000002BF5D0002DF3D0286800F013FC002875
:1054A000EED06C68002CEBD08027E359606A9846F8
:1054B00008F0DEFAE359E2261869A8239B009C460F
:1054C000B600815960444A780B7812021A438B78EF
:1054D000C9781B04134309066269194301F02EFCC5
:1054E000E35982461869A8239B009C468159604471
:1054F0004A780B7812021A438B78C9781B0413433D
:1055000009062269194301F019FC43460400186991
:10551000E4239B00994652468159C35800F04CFB46
:105520004346070018694B462200C358815900F0D2
:1055300043FB3840040001235C402800E4B26400CF
:1055400000F0BAF99DE7C046F0B5C6460500170061
:1055500000B5002A18D0037B002B15D103604360EF
:105560000223FF3383810023C8220C0000269846C3
:1055700082602100280007F027FF43460136A4601F
:105580002373C834B742F4D180BCB846F0BDC046DE
:10559000F0B5C6460500170000B5002A18D0037BF9
:1055A000002B15D1036043600223FF338381002366
:1055B000C8220C000026984682602100280007F0CF
:1055C00003FF43460136A4602373C834B742F4D1C5
:1055D00080BCB846F0BDC046F0B5C6460500170011
:1055E00000B5002A18D0037B002B15D1036043605F
:1055F0000223FF3383810023D8220C000026984623
:1056000082602100280007F0DFFE43460136A460D7
:105610002373D834B742F4D180BCB846F0BDC0463D
:10562000F0B5C6460500170000B5002A18D0037B68
:10563000002B15D1036043600223FF3383810023D5
:10564000D8220C000026984682602100280007F02E
:10565000BBFE43460136A4602373D834B742F4D16D
:1056600080BCB846F0BDC046F0B5C6460500170080
:1056700000B5002A18D0037B002B15D103604360CE
:105680000223FF3383810023A4220C0000269846C6
:1056900082602100280007F097FE43460136A4608F
:1056A0002373A434B742F4D180BCB846F0BDC046E1
:1056B000F0B5C6460500170000B5002A1AD0037BD6
:1056C000002B17D1036043600223FF338381002343
:1056D0000C0000269846094A82602100280007F045
:1056E00073FE43462373054B01369C46A460644415
:1056F000B742F2D180BCB846F0BDC046A815000044
:10570000F0B5C6460500170000B5002A18D0037B87
:10571000002B15D1036043600223FF3383810023F4
:105720001C220C000026984682602100280007F009
:105730004BFE43460136A46023731C34B742F4D1B8
:1057400080BCB846F0BDC046F0B5C646050017009F
:1057500000B5002A1CD0037B002B19D103604360E5
:105760000223FF338381002384220C000026984605
:10577000120182602100280007F026FE43462373B1
:1057800084231B019C460136A4606444B742F1D1D6
:1057900080BCB846F0BDC046F0B5C646050017004F
:1057A00000B5002A18D0037B002B15D1036043609D
:1057B0000223FF33838100232C220C00002698460D
:1057C00082602100280007F0FFFD43460136A460F7
:1057D00023732C34B742F4D180BCB846F0BDC04628
:1057E000F0B5C6460500170000B5002A18D0037BA7
:1057F000002B15D1036043600223FF338381002314
:105800001C220C000026984682602100280007F028
:10581000DBFD43460136A46023731C34B742F4D148
:1058200080BCB846F0BDC046F0B5C64605001700BE
:1058300000B5002A18D0037B002B15D1036043600C
:105840000223FF338381002320220C000026984688
:1058500082602100280007F0B7FD43460136A460AE
:1058600023732034B742F4D180BCB846F0BDC046A3
:1058700010B5034B0100180007F0A6FD10BDC0468F
:10588000D45E002070B504000068002806D0084BE4
:1058900019680CF01DFA002809D120606168002900
:1058A00005D0002503480D6107F08EFD656070BDD1
:1058B000BC340110705E002010B5040000680028A0
:1058C00006D0084B19680CF003FA002808D12060B4
:1058D0006168002904D0044807F076FD0023636066
:1058E00010BDC046BC340110905E002010B504000D
:1058F0000068002806D0084B19680CF0E9F9002868
:1059000008D120606168002904D0044807F05CFDDC
:105910000023636010BDC046BC340110205F00202E
:1059200010B504000068002806D0084B19680CF078
:10593000CFF9002808D120606168002904D004480C
:1059400007F042FD0023636010BDC046BC34011067
:10595000C45E002010B504000068002806D0084B83
:1059600019680CF0B5F9002808D120606168002999
:1059700004D0044807F028FD0023636010BDC04632
:10598000BC3401109C59002010B5040021000348CC
:1059900007F01AFD0023A36110BDC046405F002040
:1059A00082B0F8B50692274A040017689446079318
:1059B000002F3FD038000021234D826840685259A3
:1059C000A21A5642724189180028F6D106AA127806
:1059D000022A27D006D90020032A03D0F8BC08BC2D
:1059E00002B01847002B21D08B421FD80020002F77
:1059F000F4D00126154D1449764202E07F68002F4D
:105A0000ECD0BB685A589442F8D1114A944663448A
:105A10000CCB9D4202DCF1D19642EFD916001D005D
:105A20003800EBE7002B01D08B42D7D9604607F056
:105A3000B7FCD3E706AA1278022AF7D00021022A7F
:105A4000C9D8F3E7105F002014080000FFFFFF7FB4
:105A500018080000124BF0B51B680400002B1CD086
:105A6000012700200F4E104D7F4202E05B68002BA3
:105A700012D09A6851598C42F8D10C498C46624434
:105A800006CA964202DCF1D18F42EFD918005B685A
:105A90000F001600002BECD1F0BD0020FCE7C04643
:105AA000105F0020FFFFFF7F1408000018080000AF
:105AB000F0B5DE4657464E464546E0B53B4B8FB007
:105AC00004931B68994608F0E5FD4B468A4605900D
:105AD000002B64D00026002744E0032B53D0012282
