:020000041000EA
:1000000000B5324B212058609868022188439860DF
:10001000D860186158612E4B002199600221596106
:100020000121F02299502B49196001219960352056
:1000300000F044F80222904214D00621196600F024
:1000400034F8196E01211966002018661A6600F04E
:100050002CF8196E196E196E052000F02FF8012189
:100060000842F9D1002199601B49196000215960AB
:100070001A491B48016001219960EB211966A021F2
:10008000196600F012F800219960164914480160C1
:100090000121996001BC002800D000471248134993
:1000A000086003C880F30888084703B5996A0420EC
:1000B0000142FBD001200142F8D103BD02B5186610
:1000C0001866FFF7F2FF186E186E02BD00000240BE
:1000D000000000180000070000035F00212200005C
:1000E000F4000018222000A00001001008ED00E03C
:1000F00000000000000000000000000074B24E7A12
:1001000000200420F7010010C3010010C5010010F9
:10011000C1010010C1010010C1010010C101001097
:10012000C1010010C1010010C1010010C701001081
:10013000C1010010C1010010C9010010CB01001065
:10014000CD010010CD010010CD010010CD01001037
:10015000CD010010CD010010CD010010CD01001027
:10016000CD010010CD010010CD010010CD01001017
:10017000CD010010CD010010CD010010CD01001007
:10018000CD010010CD010010CD010010CD010010F7
:10019000CD010010CD010010CD010010CD010010E7
:1001A000CD010010CD010010CD010010CD010010D7
:1001B000CD010010CD010010CD010010CD010010C7
:1001C00000BE00BE00BE00BE00BE00BEEFF3058054
:1001D000103800BEF2EB88712CDC001048DC0010F7
:1001E0003402001090A31AE700201F49086006C8D7
:1001F00081F3088810471D48006800282FD10DA4FE
:100200000ECC002902D000F012F8F9E71849194A7B
:10021000002000E001C19142FCD1174988471749ED
:1002200088471749884700BEFDE701C901C29A42C5
:10023000FBD3704748DC0010C00000206C0F00208A
:10024000F4EA00100000042000000420F4EA00108A
:10025000001004200010042000000000704709482E
:1002600002F014FE0047000008ED00E0000000D09E
:10027000700F0020B85E00203117001055030010E9
:10028000591800105756000006005250ABB3605387
:10029000B0CF001006005250861C0302B8CF0010E9
:1002A000060052505422A29DC0CF001005005250AB
:1002B000DE65F468F4EA0010F8B5C0460448054B62
:1002C00010B5834203D0044B002B00D0984710BDDB
:1002D0006C0F00206C0F002000000000064807494A
:1002E000091A8B10C90FC91810B5491003D0044B57
:1002F000002B00D0984710BD6C0F00206C0F002021
:100300000000000010B5074C2378002B09D1FFF73F
:10031000D5FF054B002B02D0044800E000BF0123AD
:10032000237010BD6057002000000000E8CC0010D2
:10033000054B10B5002B03D00449054800E000BF71
:10034000FFF7CCFF10BDC04600000000645700203E
:10035000E8CC001000B595B002A803F07DFE02AB1A
:100360000022002107A803F0D9FD054B68461A6852
:10037000044B196807AB03F01BFE002015B000BD4D
:10038000FC030020F803002010B504F0EDF9014B48
:10039000186010BDB8570020024B18688007C00FC6
:1003A0007047C04600C0064070B5EFF3108C72B6BF
:1003B0000D4D2B68002BFCD0BFF35F8F0724CB08BB
:1003C000C618C05C01230C40A3401C00044003423B
:1003D00007D103433370BFF35F8F2C608CF3108819
:1003E00070BD100001F03CFA2C0100D00021044B3C
:1003F000044ABFF35F8F02C39342FAD17047C046ED
:10040000000100D0800100D0044A1078431CDBB208
:10041000172B00D9102313707047C046000400202A
:1004200001238340002904D0034A1360034A136068
:100430007047034A1360FBE780E200E000E100E060
:1004400080E100E0024B10309B688000C05870478C
:1004500000ED00E070B50D00EFF3108672B60F4AA4
:100460001368002BFCD0BFF35F8F0D4B10309B68DF
:1004700084001B590B4A934203D09D4201D001F0E6
:1004800007FA074B9B681D51BFF35F8FBFF35F8F68
:100490000022024B1A6086F3108870BD240100D040
:1004A00000ED00E0CD010010F0B5DE4657464E46A7
:1004B0004546E0B50C0083B0EFF3108972B6584A98
:1004C0001368002BFCD0BFF35F8F564B9A68030074
:1004D00010339F00D559544A9046954232D0A542D8
:1004E00043D0524EAA1B2F2A2CD80122824092467A
:1004F00051464F4A12681140019151464D4A1160D0
:10050000BFF35F8FEFF305829346002A33D10123B7
:100510002A009A4393689C4208D177E04B005B180D
:100520009B00F3189968A1422AD01A00062151565F
:100530000029F3DA019B002B19D052463E4B1A607A
:100540003B4B1A60374B9B68DD51BFF35F8FBFF3A6
:100550005F8F0022324B1A6089F3108803B0F0BC21
:10056000BB46B246A946A046F0BD1500EAE7524692
:10057000304B1A60E6E79342C9D001F089F9C6E72B
:1005800006215956002921DB4A00501880003418F2
:100590008046A0689860E079D8710620205698714E
:1005A000002824DBA488F01A6405241544440019AB
:1005B000E0240005400D24022043988052181F4B70
:1005C0009200B6181A781970B271B3E7594600292B
:1005D0000FD1FF3191711A49918018490A789A71A7
:1005E000184A9B1B5B415A43120D0A70A2E716483A
:1005F000E3E7164A1649D21A083A5002400D014361
:100600009980144952080A43DA8093E7062151562B
:1006100013000029B8DA5A46002AEAD14546DCE739
:10062000240100D000ED00E0CD0100100404002002
:1006300000E100E080E100E080E200E0B35E002045
:1006400001BDFFFFAAAA000001BD00003E0400207A
:1006500000F0FFFF00F8FFFF70B5EFF30581012404
:100660000443EFF3108C72B6214A1368002BFCD0C0
:10067000BFF35F8F1F4B05001F4AED1A6D416A43A0
:10068000120D1E4D8900AE6852B27658A6421CD09B
:100690000621595691421CD012215956914222D01E
:1006A0001E215956914220D02A21595603249142A5
:1006B00010D0134B19781A708171BFF35F8F00222D
:1006C0000B4B1A608CF3108870BDAB680D4C5C50FE
:1006D000EFE700246100091989005B18FF21997177
:1006E00009499980E5E70124F4E70224F2E7C046CE
:1006F000240100D004040020AAAA000000ED00E0BC
:10070000B35E0020CD01001001BDFFFF054B064A7E
:100710001360064A136053609360D36013615361A2
:10072000936170478080808000E400E004E400E092
:10073000024B9C46614489000160704740000034D0
:1007400010B50400FFF760FE01002000FFF7F0FF86
:10075000FF232371BFF35F8F10BDC04610B50400A7
:10076000FFF752FE01002000FFF7E2FFFF23A38006
:10077000BFF35F8F10BDC04683680B4810B5844639
:1007800061446244090112019A18591854684B686F
:1007900001209C4201D802D00020C0B210BD1268D6
:1007A0000B689A42F9D8F7E7FFFFFF0F0A4B196869
:1007B000EFF3108072B60A68002AFCD0BFF35F8F97
:1007C0001B68BFF35F8F00221A6080F3108840BF60
:1007D000002000217047C046F85D0020F8B557465C
:1007E0004E464546DE46E0B599460CAB1C780DAB4F
:1007F0001B78060090469A460768002C11D1BC7BF6
:10080000002C42D065003B682D19033D59194B78E7
:10081000BB73002B00D1FB7300238B704B700B70EC
:1008200004E065003B682D19033D5919B2682A4B55
:1008300094464246E3181B0163441A604A465A60D4
:100840000A9A9A600B9ADA6000238B704B700B70D7
:100850007B7B9B46002B2BD022005946B8687B68D7
:1008600098473A68002816D05B4658465B005B44C0
:100870005519033BA870D118D35C002B00D06B70C6
:100880005B460C707B73A34513D0F0BCBB46B246ED
:10089000A946A046F8BD5B465B005B44033BD3180A
:1008A0009C705119525D002A00D05A705B460B7043
:1008B0007C7342464B46307D00F004FB051E06D09B
:1008C0005346002B03D12100306800F01FFD0E9B22
:1008D000002BDAD01D70D8E7FFFFFF0FF0B5DE4622
:1008E00057464E4645460023E0B58BB00893674B0C
:1008F0008200D45800239B46099000F093FA626866
:1009000006000F00EFF3108572B61368002BFCD0C1
:10091000BFF35F8F23689C465B7B9946002B00D119
:1009200069E0A2685A4B90464B441B0198444346E9
:100930001A685B6810001900801BB941002900DCAF
:1009400063E0099800F0BEFA0023002298460023D5
:100950000692079300239A466368BFF35F8F5A4657
:100960001A6085F310885346002B08D10028C4D1A3
:100970000BB0F0BCBB46B246A946A046F0BD089BF2
:10098000414618024B461843D047626806000F00E4
:10099000EFF3108572B61368002BFCD0BFF35F8FA6
:1009A000002F50DB33003B4302D02369002B61D181
:1009B0002368D97B002907D04A00521819688C4651
:1009C00049466244033A51709A7B002A01D14A4653
:1009D0009A734A46DA734B46E168013BCA5C0132BE
:1009E000CA545B4623616368BFF35F8F5A461A603F
:1009F00085F3108881E700230022984600230692A1
:100A00000793002300209A46A6E7002902D1002878
:100A100000D096E70021604600F0F6FB43461A68D6
:100A20005B680692079343469B689A464346DB6899
:100A30009846E3684B44013B1B7808931B02034331
:100A40002361002088E72369002BB1D0069A079B19
:100A5000921BBB41002B15DB5946049101210391E8
:100A60004946029141460191514620000091FFF70D
:100A7000B5FEB6E700F0D6F932003B0012184B4144
:100A8000002BE9DA0122034B5242E5E7905D00209A
:100A9000FFFFFF0FFFFFFF7F10B5144C6368002BB3
:100AA00004D00A211248FFF743FE10BD2300114A6B
:100AB0001021206800F0C2FA032000F0A7F90320FB
:100AC00000F06AFA03200C4900F0B6F9FFF79CFC2D
:100AD0000A4B9C4603232375D0231B061B686044E6
:100AE0006375074B80006060DC60DAE74C0400202F
:100AF000F85D002079070010DD0800104000003488
:100B0000905D0020F0B54E464546DE465746E0B5BE
:100B100085B0019310AB1B78060003930023994620
:100B2000984600927268EFF3108B72B61368002B30
:100B3000FCD0BFF35F8F3568AC7B002C3DD06700E5
:100B40002B683F19033FDB195A78AA73002A00D19A
:100B5000EA73B168474A8C4600980199A2181201BD
:100B60006244106051600E9991600F99D1604246C5
:100B70009A705A701A706B7B9A46002B67D02200CD
:100B80001900A8686B6898472A68002852D0534615
:100B900050465B005344D719033BB870D118D35C5F
:100BA000002B00D07B7053460C706B7354454FD0B4
:100BB000F3681B19013B187800E000207368BFF34D
:100BC0005F8F42461A608BF31088002C4FD04B4643
:100BD000002B08D10002204305B0F0BCBB46B24652
:100BE000A946A046F0BD039B002B3ED00E9B0020E3
:100BF0000F999847030004000D000B4335D00029DE
:100C00000ADA009A019B121BAB4100920193002B60
:100C10000ADB039B994685E700F004F924184D414F
:100C200000940195002DF4DA0123134C5B420093EC
:100C30000194EEE753465B005344033BD3189C708A
:100C4000D119D25D002A00D05A7053460B706C73D4
:100C5000307D009A019B00F035F981460028A7D02D
:100C60002100306800F052FBA2E70020B4E7012029
:100C70004042B1E7FFFFFF0FFFFFFF7FF0B5EFF34B
:100C80000583CE46474680B505000C0085B0002B95
:100C900012D02C4A0020536A9C4203D8926A013039
:100CA000AA4204D305B0C0BCB946B046F0BDE01AB4
:100CB000421E9041C0B2F5E7234E02930193234BAD
:100CC0000200009330000B00FFF71CFF031EE0DD65
:100CD00020BF7168EFF3108772B60A68002AFCD053
:100CE000BFF35F8FDAB294463068427B62451DD015
:100CF000FF221A40510089460168914488464946BE
:100D0000414403398978002913D0F1681B0A8846C9
:100D10004244013A1278DBB29A420FD07368BFF3B3
:100D20005F8F00221A6087F31088B2E7FF221A4013
:100D3000EBE732699342F1D13161EFE7614600F0B0
:100D4000E5FAEBE7004005404C040020AD07001039
:100D5000F0B5EFF30582D6464F4646461000C0B5C3
:100D60001038EFF3108872B6214C2368002BFCD0AA
:100D7000BFF35F8F0123190081401E4D1F0069637F
:100D8000AA461D4D29601D4D2E78AC463500C54044
:100D90002F402B4209D1BFF35F8F276088F3108863
:100DA000E0BCBA46B146A846F0BD5346144D5F6A52
:100DB00083005D59AF420ED3124A8E439B58624660
:100DC0001670BFF35F8F0022226088F31088002B1B
:100DD000E6D09847E4E70C4B92009C4662441368C7
:100DE0001360BFF35F8F0023236088F31088D7E779
:100DF000280100D0004005403C700540B45E002052
:100E0000405E0020BC570020D03F054010B50100D7
:100E1000024A0348FFF7C8FA10BDC046FCCC0010D8
:100E2000AD5E0020034B596A0A00986A596A8A42EB
:100E3000FAD170470040054070B504000D00EFF393
:100E4000108672B61A4A1368002BFCD0BFF35F8F6E
:100E5000002D1BD02000FFF7F5FA164981420AD079
:100E60002000FFF7F7FA01212000FFF7D9FA01234C
:100E7000A340114A1360114BA400E550BFF35F8FEC
:100E800000220B4B1A6086F3108870BD0B4BA2003A
:100E9000D5500122A2400A4920000B7893430B70E1
:100EA0000449FFF701FB00212000FFF7B9FAE5E74D
:100EB000280100D0510D001038600540BC570020BB
:100EC000B45E0020F0B54F46D6464646C0B5070092
:100ED0002C4C616A0D00A66A616AA942FAD18B4264
:100EE00008D805D00120E0BCBA46B146A846F0BDFE
:100EF000B242F7D9EFF3108A72B62348016800298D
:100F0000FCD0BFF35F8F0125BD4020491D4C8846B2
:100F1000097889462943C9B28C4641466046087023
:100F2000391D1B48890065630A51B9000B50216ABD
:100F30000020294219D0616A0800A66A616A8142CC
:100F4000FAD18B4219D801D1B24216D8CC4516D06D
:100F50000C4B1F201D625D6301230740BB400D4AFF
:100F60001E38136043464A461A70BFF35F8F002253
:100F7000054B1A608AF31088B5E70020F5E70120D9
:100F8000F3E7C04600400540280100D0B45E0020D1
:100F9000405E002080E200E0EFF3108C72B60A4958
:100FA0000B68002BFCD0BFF35F8F01238340074AFF
:100FB0000748136202789A430270BFF35F8F0023E1
:100FC0000B608CF310887047280100D0004005406A
:100FD000B45E002070B5050014001600002915D07D
:100FE0000C00002A12D080686B6898472968002896
:100FF0000ED073009B196200033B1219CB18033A01
:101000009C7088188A5C002A15D10670200070BD7B
:1010100063001B197200033B9219CB18033A9E70B0
:1010200088188A5C002A02D104703400EEE75A70F6
:1010300004703400EAE75A700670E7E730B5836061
:101040000023CCB243730133047342608373C473CF
:101050000D000068012C06D9421C0133DBB213706D
:1010600003329C42F9D1FF2129404B00591800233B
:1010700040180338437030BDF8B5CE4647460600E9
:101080000C0080B5002907D04D0003686D18033DA2
:101090005A195778002F04D12000C0BCB946B04679
:1010A000F8BD7900C91903398846434459788946FF
:1010B00000215970517073683A0021008068984788
:1010C0003368002814D042469A18947059195B5D11
:1010D000002B00D053700F70270049463000FFF7F7
:1010E000CBFF390002003000FFF774FF0400D3E7A4
:1010F000424641465D19AF709A185B5C002B00D0E8
:101100006B701470E9E7C046F0B557464546DE46B9
:101110004E46E0B50D006B0001685B19DF1E040050
:10112000C85D83B00192CA19002850D043001B1833
:10113000033BCB185E78B446002E1AD1019E002ED8
:1011400042D0E67B002E04D073009B19CB18033BE2
:101150005D70A37B002B00D1A573E57300282FD110
:101160000023537003B0F0BCBB46B246A946A0466C
:10117000F0BD72006244033A89184A789046002212
:101180004A7091465A70010032002000FFF722FF9A
:1011900043468246002B07D05B0021684344033B53
:1011A000CB185A78002A16D1424651462000FFF744
:1011B00011FF2168019BCA19002BC2D10028CFD092
:1011C00043001B18033BCB1800219970C8E7019B13
:1011D000002BB6D1C4E750008018033809184878AE
:1011E000834648464870587041462000FFF7F2FE9B
:1011F000594680462000FFF73FFF4146020020008D
:10120000FFF7E8FE8046CFE7F0B557464546DE4695
:101210004E46E0B583B00191457B04006B00006849
:101220005B19DF1EC15DC219002952D04B005B184B
:10123000033BC3185E78B446002E1CD1019E002EDD
:1012400044D0E67B002E04D073009B19C318033BE7
:101250005D70A37B002B00D1A573E573002931D10C
:10126000002328005370617303B0F0BCBB46B24644
:10127000A946A046F0BD72006244033A8018427845
:1012800090460022427091465A7020003200FFF7CB
:10129000A1FE43468246002B07D05B0021684344F1
:1012A000033BCB185A78002A17D1424651462000FA
:1012B000FFF790FE019B01002068C219002BC0D1EE
:1012C0000029CDD04B005B18033BC3180020987059
:1012D000C6E7019B002BB4D1C2E750008018033849
:1012E000091848788346484648705870414620009F
:1012F000FFF770FE594680462000FFF7BDFE4146CD
:1013000002002000FFF766FE8046CEE770B50400BD
:1013100000292CD0437B8B422ED005684800401812
:10132000033828188278002A21D053009B18033BE9
:10133000EA5CEE188A4202D11BE0002A08D0530072
:101340009B18033BEB185A788A42F6D142785A70C0
:1013500000230122837043702000FFF7D5FE617BDC
:1013600002002000FFF736FE6073012000E000203D
:1013700070BD43783370EBE701221900FFF7C4FE1C
:1013800060730120F4E7C04630B50C2083B000F054
:10139000B3F9FFF701F800280ED0994B994A1A606B
:1013A0005A609A60DA601A615A619A61DA611A6267
:1013B000954A5A6203B030BD944CA06700F0A4F97E
:1013C0000122934B1A60636C012BFCD10322914BD9
:1013D0001A608E4A936B012BFCD1013301218E4A96
:1013E0008E480093043300F037F905238C4A0093AC
:1013F00001218C4800F030F98B4B5A68FF2A02D843
:10140000802252005A6080227D4C824B2169120159
:10141000854D1A60002907D0606901F091FD431CD9
:101420005800C0180338FDD2E0217F4B02201A6813
:101430001140802252012A4311601968484003215B
:101440000140116004219A681142FCD08022802161
:1014500092012A4309011160802252005A60734BA5
:101460002361734B5968FF2900D85A600321684AE9
:101470006F4B116002399A681142FCD0E0201A6863
:101480001040802252011A4310601868484003211E
:1014900001400220116066498A681042FCD0802217
:1014A00092011343802212011A608022614B520084
:1014B0004A606361604B5968FF2900D85A608022F6
:1014C0005E4BE16912015C4D1A60002907D060692A
:1014D00001F036FD431C5800C0180338FDD2E0224D
:1014E00055490B681A4080235B012B431A60802307
:1014F00080229B012B4312011A608022414B520033
:101500004A60E3614E4B5968FF2900D85A60802237
:101510004C4B216A12014A4D1A60002907D06069BC
:1015200001F00EFD431C5800C0180338FDD2E02224
:1015300043490B681A4080235B012B431A608023C8
:1015400080229B012B4312011A60802380225B00C2
:101550004B602C4BD20223623B4B5968914200D224
:101560005A608022394B616A1201374D1A60002996
:1015700007D0606901F0E4FC431C5800C018033830
:10158000FDD2E02230490B681A4080235B012B43D7
:101590001A60802380229B012B4312011A60802352
:1015A000DB024B60184B6362294B5A68FF2A02D852
:1015B000802252005A608022264BA1691201244DDC
:1015C0001A60002907D0606901F0BAFC431C58007A
:1015D000C0180338FDD2E0221D490B681A40802351
:1015E0005B012B431A60802380229B012B43120155
:1015F0001A6080235B004B600E4BA361DAE6C046A5
:10160000F8580020006CDC021BB70000008000408E
:101610003CB0004030B00040002F685900800240CC
:10162000008C864700C0024030800040001BB7009D
:101630003C800040405973075480004054B0004043
:101640006080004060B000406C8000406CB00040A2
:101650004880004048B00040F8B5040021481D0013
:1016600017000E0001F06CFC0100380001F068FC6E
:10167000069B29041B0319432368002B20DB1A4B0C
:101680001A4DE21853425A4180235B019C461203D3
:10169000174B62441A60174B1A601700AB689F43E0
:1016A000FBD1C022231D92011A4321232660A06092
:1016B00013602368002BFCDA0823E1601360F8BD97
:1016C0003F2322681340B342D9D1A3681B051B0DE9
:1016D0008342D4D1EE22E368D20213408B42CED1B2
:1016E000EDE7C046001BB7000040FDBF00C0004052
:1016F00000E0004000F000408023024A9B000343CA
:10170000D362704700800540AA23064A1B0113607C
:101710002F230549D360054B19605368002BFCDA71
:101720007047C0460040024000B0FA00006002402E
:101730002C4B2D4A70B51A602C4A2D4B2D491A603E
:1017400014008B689C43FBD12B4D2C4EB54208D224
:10175000013E761BB60808CD984723000134B342FA
:10176000F9D1FFF711FE264A214B1A60214A9368EE
:10177000DB43DB01DD09002BF9D14022214B224C58
:10178000224E9A675A671A67DA66B44208D223680B
:101790002000002B20D00834FEF7E0FFB442F6D33F
:1017A0001B4E1C4CC022A168300002F091FAA660CA
:1017B000FEF71CFEFEF7AAFFFFF76EF9164C174E58
:1017C000B44208D2013E361BB60808CC98472B001D
:1017D00001359E42F9D170BD0834FEF7B1FFB44225
:1017E000D5D3DDE700E00040BFCDFBFEFE7F3C002F
:1017F00000F0004000C000404C0F00205C0F0020B3
:10180000FFFFFF0100F00140440F00204C0F0020BB
:101810000000002000ED00E05C0F00206C0F0020B5
:1018200000BEFDE7094A03001068002805D00849FA
:10183000C3188B4207D81360704706480449C31881
:1018400010608B42F7D901204042F5E74C5D002043
:1018500000000420B85E002010B5FFF7E1FFC0468D
:101860000FB400B5084883B002F012FB049B002BB4
:1018700007D005A91800019101F0E8FA034802F029
:1018800007FB0120FFF7CCFF20CD001030CD00106A
:1018900010B50148FFF7E4FF34CD00109A4200D2A2
:1018A000885470477047C046F8B557464E4645467F
:1018B000DE46E0B599460A9B07009A460D9B88468E
:1018C000934615000B9E9B0710D10C9B9E420DD298
:1018D0009D1B14000E005D4422004B460134310074
:1018E0002020B847A542F7D1B0460B9E002E27D046
:1018F000444675195346AA1B013E985D21004B468C
:10190000B847002EF6D123002C0098460D9B9B076C
:101910000FD55B46E51A0C9BAB420AD94646984662
:1019200022004B46310020200135B8470134A8453C
:10193000F6D82000F0BCBB46B246A946A046F8BD8A
:101940002C00E3E7F0B54F464646D646C0B584B016
:1019500098460EAB1B78129F994694460D9C109B9F
:10196000119EBA0725D4002E4BD19C4200D3BFE074
:1019700001223A4092461F2C00D9B8E00C9A551E1D
:10198000302201E0202C03D001342A55A342F9D89B
:101990005246002A0DD0A6420BD9202C44D00C9AD6
:1019A000551E302201E0202C3ED001342A55B4428D
:1019B000F9D1FA064DD57A053FD4002C39D10F9BC9
:1019C000102B00D179E00F9B022B00D18AE030234D
:1019D0000C9A012413704B46002B3FD02D230C9AF8
:1019E000135501340C9B62460093039743460296BD
:1019F0000194FFF759FF04B0E0BCBA46B146A846CF
:101A0000F0BD012215003D40AA463A422FD04A4679
:101A1000002A02D10C323A4200D0013E9C42BAD296
:101A20001F2CABD9202E27D92024FA06DAD57A0527
:101A300003D4A3422DD0A6422BD00F9B102B32D023
:101A4000022B20D0202CCDD030220C9B1B191A70D9
:101A50000134202CC6D04B46002BBFD17B070DD4C0
:101A60003B07BFD520230C9A13550134BAE79C429B
:101A70009FD21F2C00D881E720249AE72B230C9AB1
:101A800013550134AEE7202CACD00C9B1B1901344C
:101A90003AE0631E012C92D00F9A102A2AD0022A13
:101AA0002FD01C00D0E7BB060ED4202C9AD00C9B64
:101AB0001A19013478231370C4E7BB060DD47823B8
:101AC0000C9A01241370BFE7202C00D18AE758221A
:101AD0000C9B1B191A700134B4E758230C9A01248B
:101AE0001370B1E70C9A603301241370ACE7202423
:101AF00000265EE7023CBA06E9D40C9A12191C00D3
:101B0000D8E70C9A9246534462221A709AE7C0466C
:101B100010B5002800D110BD02F06EF9FBE7C046F9
:101B2000F0B5DE4657464E464546E0B59BB09B466F
:101B3000249B89469846259B0B900C924046424632
:101B400019009A4601F0C5FC002800D0D8E0012217
:101B500040465146774B524201F0B6FC002800D077
:101B6000CEE0012240465146734B524201F096FCB2
:101B7000002800D0C4E0002200234046514601F076
:101B80008DFC002800D0B9E1424653460A920993E1
:101B90008023289ADB001A400E92289A1A4201D11B
:101BA000062326930A9A099B1600134300D0C7E028
:101BB000289B002500261B0500D49BE100230D93E4
:101BC000269A0D9B9A4200DC9FE1D01A431E269371
:101BD0008023289ADB001A430023002728920D93C4
:101BE000279B0024BB4200D9DC1B0223289A1A4001
:101BF0000E92289A134203D07B427B415B421C40E9
:101C00000D9B002B07D00A9809992A00330001F098
:101C1000E4FB0A900991002200234046514601F05E
:101C20003DFC002805D080200006844609996144C7
:101C30000991289A414B0B9D13400493269B0A9AC5
:101C40000293099B03940092019349465B46280046
:101C50000C9A00F08BF90400002F62D0289B220020
:101C600098061F23C0179843631C984649465B4655
:101C70006530A8470D9B0025DA179C18DB0F9A46A4
:101C80005440013F01E0202D13D00AAA94461F239F
:101C9000200063440A2101355E1901F051F9303109
:101CA000317020000A2101F04BF926000400092EB2
:101CB000E9D805230693002304930A33039353467C
:101CC00005970B9F029312AB009342465B46494631
:101CD00038000195FFF736FE0E9B0400002B20D044
:101CE0000C9BC51A279BAB421BD91E0022005B46EA
:101CF000494620200135B8470134AE42F6D810E0FD
:101D0000289B42460493279B49460393269B0B98A6
:101D100002935346009201935B460C9A00F026F919
:101D2000040020001BB0F0BCBB46B246A946A0464A
:101D3000F0BDC046FFFFEF7FFFFFEFFFFFF7FFFFA4
:101D4000734B099F9C467800400D604401F0D4FB22
:101D5000704A714B01F05FFB704A714B01F034FB2C
:101D60003B03704A1B0B1A4304000D0030001100A6
:101D70006D4B002201F01FFB6C4A6D4B01F04BFBD9
:101D800002000B002000290001F01EFB01F0CCFB3B
:101D90000D9001F0B1FB674A674B04000D0001F0A4
:101DA0003AFB0022654B01F00FFB01F0BDFB644ADA
:101DB0000600644B2000290001F02DFB04003000D8
:101DC0000D000F9601F098FB5F4A604B01F023FB7A
:101DD00002000B002000290001F0EDFA02000B00C8
:101DE00006000F0001F017FB320004000D003B005D
:101DF0003000390001F0E8FA002210901191544BA4
:101E00002000290001F0E9FA0022524B01F0DCFA2F
:101E100002000B002000290001F0DFFA00224E4BE7
:101E200001F0D2FA02000B002000290001F0D5FADF
:101E30000D008021040032003B000020C90501F0A4
:101E4000BAFA02000B002000290001F0BDFA0200DE
:101E50000B001098119901F0C0FA0022314B01F0EB
:101E6000B3FA3E4B0F9C9C4664440022230501F0CC
:101E7000D2FA05000E0002000B000A98099901F041
:101E80000DFB00280AD00D9B2800013B31000D936B
:101E90000022304B01F0A1FA05000E00C6270D9973
:101EA0002B0063318F42BF4128997F4204370905D7
:101EB00000D495E6334300D182E6099C284A2100EC
:101EC000284B0A9801F0F8FA002808D000222100D7
:101ED000254B0A9801F0E2FA002800D070E6269B14
:101EE000002B00D17CE60E9B5A1E9341269AD31AF2
:101EF000269375E6002304270D9371E643460A9363
:101F000080231B065344099342E6002326935FE691
:101F100001FCFFFFFB799F501344D33FB3C8608B94
:101F2000288AC63F0000F03F0000F83F61436F631E
:101F3000A787D23F71A379094F930A400000E03F81
:101F40001655B5BBB16B0240EF39FAFE422EE63FA3
:101F500000002C400000244000001840FF03000057
:101F60002D431CEBE2361A3F80842E41F0B54E46DD
:101F7000DE4657464546E0B597B09946209E219FDC
:101F8000229B8346984607910C923B00320030001A
:101F9000390001F09EFA002800D0A9E101223000AA
:101FA0003900CA4B524201F079FA002800D0E1E032
:101FB000012230003900C64B524201F085FA002858
:101FC00000D0B7E0002230003900C24B01F07CFAAB
:101FD000002800D099E0002230003900BE4B01F00B
:101FE0005DFA002800D090E0002200233000390084
:101FF00001F054FA002800D0B1E000230D93249B97
:102000005B0501D40623984608AB9C4617220024A2
:1020100030234146624404E0013413550139202C39
:1020200001D00929F8D888463000390001F07CFA3F
:102030004346DA00A94B05009B181A685B680892B2
:10204000099301F059FA02000B003000390001F049
:10205000B2F9089A099B01F0DEF90A900B9101F0A0
:1020600087FA824601F044FA02000B000A980B99A5
:1020700001F0A1F900229A4B0A900B9101F024FA89
:10208000002800D1C0E001239C46E244504601F004
:102090002FFA02000B000898099901F005FA0028B0
:1020A00002D000239A4601354346002B6AD008AB84
:1020B00017269C4608956644554614E001235B426A
:1020C00043440A2128009A4600F03AFF0134303197
:1020D0003719397028000A2100F032FF092D00D885
:1020E000D0E0D0460500202CE8D10EAB9846032363
:1020F000249A1340012B00D196E02023249A0193C7
:102100000392239A434602921EE0249B584604936E
:10211000239B00960197039343460C9A02930799D9
:102120004B46FFF7FDFC17B0F0BCBB46B246A946D4
:10213000A046F0BD249B5B070ED40322694B249973
:102140000192039123990291009358464B460C9AB1
:102150000799FFF7A9FBE6E70422634BEFE73B0093
:1021600032000020002101F026F9012306000F00B3
:102170000D9344E7249B0393239B02930423019331
:102180005A4BE1E7280001F0B7F902000B003000DC
:10219000390001F010F9524B002206000F0001F047
:1021A0007DF90EAB984600280AD100223000390094
:1021B0004B4B01F089F9002802D1EB0700D501351E
:1021C000202C94D008AA94461723280063440A219F
:1021D00001341E1900F08CFE3031280031700A21C4
:1021E00000F086FE051EEBD10323249A1340012B39
:1021F0001BD0202C00D180E70D9B002B35D02D2249
:102200004146631C0A5579E700220A980B99344B22
:1022100001F044F9002800D046E75346002B51D185
:1022200001239C46E2443FE72024239B002BE0D07F
:102230000D9B002B03D1249A0C33134202D0239B15
:10224000013B2393239BA342D3D908AB9C4617227F
:1022500030236244202C00D14FE7239901341355D9
:102260008C42C6D0202CF8D147E7249B5B0724D4AE
:10227000249A2300120700D440E72022414601336C
:102280000A553BE75746089D202C00D12DE7220038
:1022900030214046002F09D00132B154202A00D10C
:1022A00023E7D3431B191B18002BF5D10EAB98461F
:1022B0002E234146541C8B5482E72B224146631C3B
:1022C0000A551BE7DB0700D4EEE6A9E7FFFFEFFFA7
:1022D000FFFFEF7F65CDCD4165CDCDC138CF00107B
:1022E0000000E03F40CD001044CD001050CD001064
:1022F000249B0393239B029303230193004B23E727
:102300004CCD0010F0B5DE464E4657464546E0B58A
:102310009FB01C00289B91460993C94AC94B8B4624
:1023200008901A60002900D118E2002320789A460C
:10233000002800D11AE226001D005C460AE02A00AF
:102340006F1C4B46089D2100A8473D0001363078A0
:10235000002870D02528F2D110239B46083B9A46CE
:10236000043B9846023B00219C46721C10781600E4
:102370000300203BDBB2102B03D8B34F9B00FB586C
:102380009F460300303B092B32D900230A932A28A9
:1023900068D0002398462E283ED00300683BDBB26D
:1023A000122B1CD8A94A9B00D3589F460123013207
:1023B0001943DBE7634601321943D7E7434601324D
:1023C0001943D3E75B4601321943CFE75346013245
:1023D0001943CBE780235B00707819430136030073
:1023E000253BDBB2532BAAD8994A9B00D3589F4672
:1023F00000270300B800C01901364000C018337828
:1024000030381A00303A0700092AF3D90A90180028
:10241000002398462E28C0D180237078DB00194312
:102420000300303B721C092B00D8A1E12A2800D1FF
:10243000B2E11600B1E7A346AA462C00D14503D865
:1024400001235B424B449A464B4652465946002074
:10245000089DA84720001FB0F0BCBB46B246A94665
:10246000A046F0BD099B40CB0A96002E03DB5078B6
:102470000993561C8DE72838014370420A9009934E
:102480005078561C85E7782800D1DFE1582800D124
:102490004CE26F2800D14FE3622801D100F030FCFC
:1024A00010230A009A430B92692801D000F0A9FC7E
:1024B0000A230C934B0500D5D0E10B9A8023110021
:1024C0009B0019408B461A4200D0A1E280231100E4
:1024D0005B0019408A461A4200D0B6E313005B063F
:1024E00000D5EDE2130009991B0601D400F076FC3B
:1024F00008C91BB2D8171A18424092B209919346E4
:10250000DA0F1292002B09D1802310220B99DB00E5
:102510000B4091430B91002B00D0E4E20B9A612316
:10252000920600D541230EA91F228C46DBB26244DD
:102530000A3B5F461395A34655460C9CB2460D9345
:1025400016000AE03033DBB201357355A74200D2E2
:10255000EDE2202D00D1EAE207002100380000F072
:10256000EFFCCBB20929EDD90D9A94466344DBB256
:10257000EAE780239B007078194301362FE77078D3
:10258000682800D1CDE180230136194327E7707810
:102590006C2800D1BFE180235B00194301361EE7A0
:1025A000462800D19BE10722099B049107339343FE
:1025B0000A9A19000392424602920CC908980092A6
:1025C000019309912A004B462100FFF7CFFC013609
:1025D0000500BCE62A006F1C4B46089D2100252003
:1025E000A84701363D00B2E68B0700D4ADE1099B58
:1025F0002A009A466B1C9846534601CB21009A4606
:10260000089F4B46C0B2B8470A9B9C466544012BC5
:1026100000D886E2089B4746B04626004C469946BD
:102620003A002300013731002020C847AF42F7D1DC
:10263000A1465346340046460993013687E6C04614
:1026400005230010605D002058CD00109CCD0010C7
:10265000E8CD0010099B04CB9B4643460992002B12
:1026600000D1C6E013789C46002B00D1BDE3434661
:10267000013B099A0133D0180A9F130001E08342FD
:1026800003D05A780133002AF9D1099A0A979B1A84
:102690000B9380230A00DB001A400C92194204D0ED
:1026A0000B9B434501D943460B9302231A000A4072
:1026B0000D920B4200D187E16046002800D168E10D
:1026C0000C9B002B00D10DE1A844C246099B574644
:1026D0005B1B9846089BB2462A0026004C4699464A
:1026E00009E023003100551CC8474346585D0028C7
:1026F00000D126E12A009742F3D1A1463D003400E3
:1027000056460D9B002B00D043E15B4601360993F2
:102710001DE6099B1A0008CA9246002B48D02122C8
:1027200011438B460EA884461F216144099500225F
:102730000F27A4460D0002E0202A0CD00B003C001D
:102740001C4020003730092C00D807380132A8542B
:1027500019090F2BF0D86446099D32E0DC4B207834
:10276000089300239A46002800D0E4E5002465E69B
:10277000434606000A9F9800C018013240008019A5
:102780001678030030003038303B0928F3D9300088
:10279000984616000A9700E6099B023604CB90463D
:1027A000D2434046D2171040804609933078F4E572
:1027B000102208009043113210438346002249053D
:1027C000B0D55B4606930823059343460493102334
:1027D00003930023029316AB019200932A004B4609
:1027E00021000898FFF7AEF853460500013609931B
:1027F000ADE513789C46002B00D1F7E202235B4243
:1028000037E7202302009A43472A04D180231B0183
:10281000194302239843452801D120231943072255
:10282000099B0491073393430A9A19000392424685
:1028300002920CC908980092019309912A004B4614
:102840002100FFF76DF90136050080E510230C9398
:102850000C230A009A430B924B0503D501230B9AD4
:102860009A430B92692800D127E6642800D124E618
:102870000B9A802311009B0019408B461A4200D00E
:1028800066E1802311005B0019408A461A4200D09D
:1028900039E213005B0600D53CE113001B0600D4AF
:1028A000A6E2099B04CB1204120C934609935B46E3
:1028B000002B00D09AE10B9A1033110099430B9131
:1028C000520500D492E100239A460B9B06930A9B83
:1028D0000593434604930C9B039300230CE12023B0
:1028E000194360E6099B0A9A5B1B98464B46914642
:1028F0001F00B2462600089C2A003B003100A0477A
:1029000043460135585D0028F6D14A463400B946A1
:1029100056460A92F5E6C0239B00B078194302366A
:102920005DE5C023B0781943023658E50C230A0050
:102930009A4314331A43103B0B920C934B058DD4DE
:1029400096E7A14634005646DBE60A9A012A00D8EB
:1029500053E26B1E9F18089BB04626004C469946D2
:102960002A002300013531002020C847BD42F7D19D
:10297000A14634004646099B3A0001CB2100984607
:102980007D1C4B46089FC0B2B847434601360993A9
:10299000DDE40B9B0A9AA8469A4200D8B5E6944615
:1029A0006544ED1A089B4746B04626004C469946BA
:1029B0003A002300013731002020C847AF42F7D149
:1029C000A14634004646A0E60B9A0A99531C914250
:1029D00000D814E24B199B1A1F00089BB246260030
:1029E0004C4699462A002300013531002020C84773
:1029F000BD42F7D10A9BA14601330B93099B3400DA
:102A00001B7856469C466046002800D058E67CE677
:102A10000722099B07339343013294469C44624644
:102A20005F6809921A68FB17109311931098119917
:102A3000030053400E930B007B400F9394460E9A75
:102A40000F9B121A8B410E920F93FB0F624612934B
:102A500000233A439B463DD00B9A6123920600D552
:102A600041230022DBB20EA90A3B8C4692460D930D
:102A700043461F3262441395159655460E9E0F9F8E
:102A8000A24690460C9C14930CE03032D2B24346DE
:102A900001355A55BB4500D18AE1202D00D18AE18C
:102AA00006000F00220000233000390000F086FAF3
:102AB000D2B2092AE9D90D9B9C466244D2B2E6E71C
:102AC000FF23099904C913401A00099117E5C0466C
:102AD000A51800100B9A1033110099430B91520561
:102AE000BAD500239A460B9B06930A9B059343464F
:102AF00004930C9B0393129B02935346019316ABD2
:102B00002A00009321004B460898FEF71BFF013670
:102B100005001CE4FF22099B02CB11408B46099360
:102B2000C5E65346454609930136FFF710FC564665
:102B30005C46AA46139DD6E708230C930B910B998C
:102B4000642800D084E60B9B5B0500D586E6B4E4E0
:102B50000722099B07339343013294469C44624603
:102B600009921A685B6810009B4613005A4613438B
:102B700007D10B9A1033110099430B91520500D5E0
:102B8000A1E60B9A6123920600D541230022DBB215
:102B90000EA90A3B8C4692460D9343461F3262446F
:102BA0005F461295A34655460400B24690460C9ED9
:102BB00013930DE03032D2B2434601355A5500230B
:102BC000BB4200D100E1202D00D100E104000F0044
:102BD000320000232000390000F0F0F9D2B2092AB7
:102BE000E8D90D9B9C466244D2B2E5E70B9A61237B
:102BF000920600D54123DBB20EA90A3B1F228C4668
:102C00000D93230062445C461295170055469B467F
:102C1000B2460C9E08E03033DBB201357B55B4423E
:102C20000ED3202D0CD004003100200000F088F9D4
:102C3000CBB20929EFD90D9A94466344DBB2ECE795
:102C400056465C46AA46129D3FE6099B1A0008CAF2
:102C5000D91713925A184A409246DA0F1292002B53
:102C600008D1802310220B99DB000B4091430B917C
:102C7000002B2BD10B9A6123920600D541230EAA7B
:102C80001F279446DBB20A3B0D9567445D460993C6
:102C9000A3465446B2460C9E08E03033DBB2013501
:102CA0007B55B4420ED3202D0CD0040031002000FF
:102CB00000F046F9CBB20929EFD9099A944663444A
:102CC000DBB2ECE756465C46AB460D9D0B9B2A00FB
:102CD00006930A9B21000593434604930C9B089896
:102CE0000393129B013602935B46019316AB00934C
:102CF0004B46FEF727FE139B05000993FFF727FBC2
:102D000002230C931AE7099B04CB92461293002AE4
:102D100008D1802310220B99DB000B4091430B91CB
:102D2000002B2BD10B9A6123920600D541230EAACA
:102D30001F279446DBB20A3B0D9567445D46099315
:102D4000A3465446B2460C9E08E03033DBB2013550
:102D50007B55B4420ED3202D0CD00400310020004E
:102D600000F0EEF8CBB20929EFD9099A94466344F2
:102D7000DBB2ECE756465C46AB460D9D0B9B2A004A
:102D800006930A9B21000593434604930C9B0898E5
:102D90000393002302935B46019316AB00934B46CB
:102DA000FEF7D0FD129B050009930136FFF7CFFA1D
:102DB000B44200D871E6149B54460E960F97AA466B
:102DC0009846159E139D8EE6A64200D8FBE6139BFF
:102DD00056469846AA465C46129D76E508C9D8171D
:102DE0001A1842400991FFF78AFB00230B9350E425
:102DF000099B04CB9346099359E52F00BBE50B9340
:102E000001E6063B0C939AE60CB410B584B006AC10
:102E100008CC0A000094010004480394FFF772FAFA
:102E200004B010BC08BC02B01847C0469D18001082
:102E300000B583B0009313000A0001000248FFF7B9
:102E400061FA03B000BDC0469D18001010B5094AD4
:102E50000300146884B0002C08D0012200910648B9
:102E6000524203A9A047012004B010BD01F010F8A0
:102E70000020F9E7605D0020111B001001480421CB
:102E8000014B184780040020AD2E0010142310B50C
:102E90000100188804331B88984710BD162310B50D
:102EA0000100188802331B88984710BDF8B54746C3
:102EB000CE4680B50F1E19D0142399460433040062
:102EC0000025012698464B461888434621681B88F2
:102ED000984701C4431E9841013540420640AF4225
:102EE000F1D13000C0BCB946B046F8BD0126F8E7C4
:102EF000124A936F9B0815D29066D166002905D0BF
:102F0000FFE7FFE7FFE7516F106F704704B58021BF
:102F10000906C2175140002800D0C84309F0CCFE72
:102F2000002104BDF0B5146E556E576F166FFFF794
:102F3000E3FF1466556657671667F0BD000000D0C2
:102F4000114A936F9B0813D210665166002905D071
:102F5000FFE7FFE7FFE7516F106F704704B50028E8
:102F600001D00020C04309F0A7FE002104BDC046E7
:102F7000F0B5146E556E576F166FFFF7E5FF1466C8
:102F8000556657671667F0BD000000D094464A4A60
:102F9000926F9208624601D228E0C046F0B5464ED4
:102FA000346E756E776F366F00F020F89446424AA3
:102FB00014665566576716676246F0BD94463E4AEA
:102FC000926F9208624601D254E0C046F0B53A4E84
:102FD000346E756E776F366F00F04CF89446364A53
:102FE00014665566576716676246F0BD002B24DBF2
:102FF00011D000293EDA00B5C943404200D1013169
:1030000000F038F8C943404200D10131DB4352425D
:1030100000D1013300BD002AEBD1002801D10029E5
:1030200005D00020C90FC90701D1C043410800B530
:1030300009F032FE0022002300BD00B500290ADBA2
:10304000DB43524200D1013300F014F8C94340423F
:1030500000D1013100BDC943404200D10131DB4301
:10306000524200D1013300F005F8DB43524200D157
:10307000013300BD002923D1002B18D1002A0CD028
:10308000BC460D4F38667A6600210023FFE7FFE754
:10309000FFE77A6F386F67467047002801D007480E
:1030A000010000B509F0F8FD0022002300BD020078
:1030B0000B00002000217047000000D0FFFFFFFF41
:1030C000002B00D0BFE0130C28D1002AE7D080B439
:1030D000114F39667A66FFE7FFE730B4040C7B6F67
:1030E000396F1B0423433B667A66FFE7FFE7FFE780
:1030F000C04684B27B6F3D6F1B0423433B667A66F8
:10310000FFE7FFE7C04600232C042D0C7A6F386FD1
:1031100000196941B0BC7047000000D0F0B594467A
:103120000025140E01D112020835140F01D112012D
:103130000435940F01D192000235D40F01D1520011
:103140000135D40B0134254F7C66254C3C660E0CB2
:1031500093B2FFE7FFE7FFE73C6F6643360C770368
:10316000BE467343DF0B5B04C01AB941130C7343B3
:10317000DB18C91ACE086643360CB64493B27343C3
:103180001F0F1B01C01AB941130C73431F0B1B0502
:10319000C01AB941860D8F023E436643360C092D95
:1031A00024DB520A7243801A7703460A6643360CC0
:1031B00016235B1BDE40DF40BF1964466643821B5B
:1031C0007046043506330100D940A840C01900D329
:1031D0000131A24206D20023F0BD0000000000D061
:1031E000FFFFFFFF121B0130F3D3F1E709277F1B1D
:1031F000FE406446A2B27243801A00D20139220C0A
:103200007243130C1204821A99410B007046043564
:1032100013370100F940A840801900D30131002B79
:1032200002D1A2420AD2F0BD013000D30131121BFB
:10323000FAD2013BF8D1A24200D2F0BD013000D356
:103240000131121BF7E7F0B51C0C00D080E00CB484
:1032500000251C0A04D11B02160E33431202083546
:103260001C0B04D11B01160F3343120104359C0BB8
:1032700004D19B00960F334392000235DC0B02D140
:1032800092185B4101351C00971864410134464F88
:103290007C66464C3C660E0CFFE7FFE7FFE7C04646
:1032A0003C6F6643360C7703BE4697B27743C01B2C
:1032B00000D20139C01B00D201399FB27743C91B2C
:1032C000C91B170C77437E04FF0B801BB941CE0846
:1032D0006643360C0C2D33DBB644120B1F053A4304
:1032E0001B0B97B27743C01B00D201399FB27743C3
:1032F000C91B170C77433E043F0C801BB941860D58
:103300008F023E43664329277F1BFE400C3D7746D4
:10331000AF40BF1930BCA2B2ABB272437343801A44
:103320009941220C7243130C1204801A9941020035
:103330000B000137001BA941F9D2781E0021F0BD16
:103340000C277F1BFE4077467F0BAF40FF19E0E75D
:1033500000245D1C07D0144F7D663966FFE7FFE748
:10336000FFE7FFE73C6F95B29EB265436643401BA3
:10337000B141150C1E0C6543664336042F0C3E43C9
:103380002D04401BB141994204D202000B002000E1
:103390000021F0BD01D19042F7D3801A9941013448
:1033A0009942F2D3F6E70000000000D0FFFFFFFFD4
:1033B00048404140484018B41B4B5B68FC460193B1
:1033C00008BD04DF4F36001018B4174B1B68FC46CD
:1033D000019308BD00DF593600109446134A926FDE
:1033E000920809D2624618B40F4BDB68FC46019381
:1033F00008BD0CDF113900100C4AF0B5146E556E83
:10340000576F166F6246FFF7EEFF084A146655665F
:1034100057671667F0BD18B4034B9B68FC460193D1
:1034200008BD08DFB537001060550020000000D04F
:10343000FFB550404240504059404B40594000E099
:10344000FFB5154F4C00640D03D0BC4204D10C03F2
:1034500014D80020090D09055C00640D03D0BC429E
:1034600004D11C030AD800221B0D1B0501264B406A
:1034700009D44B4003D58B4200D18242FFBD994213
:10348000FCD19042FFBD0B43DB1803431343F5D03F
:10349000C9434918FFBD0000FF07000000B5FFF752
:1034A000CFFF804100BDC04600B5FFF7C9FF01D97D
:1034B000002000BD012000BD00B5FFF7B9FF01D914
:1034C000002000BD012000BD00B5FFF7B1FF804125
:1034D00000BD012040054A00121804D85A001218F5
:1034E00001D800207047012070470020704700007D
:1034F0000021002805D17047C1174840401AFAD072
:10350000C90713B5064B1B6898470CBC441CA24066
:103510001005120B0349091B09051943114310BD7E
:10352000F45D00201F04000010B54C00620D8023E4
:10353000D218DB00D21A5B057E2A10DD9E3A13DA20
:10354000CC170903490819435242D14064000134A1
:103550001532202A05DAD0400843604310BD002010
:1035600010BD0846604310BDC80FC018013810BD1B
:1035700018B4044B5B6AFC46019308BD24DFC13AD2
:103580000010000060550020132370B51D78012D38
:1035900015D010DD1C48FFF781FC1C4C0100802277
:1035A000200000F095FB022D06D01948FFF76EFCB5
:1035B000184B186070BD154C174BA364F5E7164BFC
:1035C000124C23606360A360E36023616361A361C5
:1035D000E36123626362A362E36223636363A363C1
:1035E000E36323646364A364E36423656365A365A1
:1035F000E36523666366A366E36623676367A36781
:10360000E367A364D1E7C04653440000605500203F
:103610004C330000F45D00201D36001007B56046F5
:1036200001880A0A0230DF2AFAD1C9B2820804D31B
:10363000028840880004104300E00068014A5050AE
:10364000039007BD605500200FB403BC0CBCF0B55F
:103650000124E407634000E0F0B50C0DCF0F661EB7
:103660003605891B640503D3C943404200D30131A9
:10367000640D03D0661CF60A07D0E41B00207F000F
:10368000791C89078912803C24031D0DDF0F6E1EF3
:1036900036059B1B6D0503D3DB43524200D3013338
:1036A0006D0D03D06E1CF60A07D0ED1B00227F00C3
:1036B0007B1C9B079B12803D2D032F1B661B58D440
:1036C000A446202E46DA20371400BC401D00BD4021
:1036D000F24033412A4380185941CB0F05D0C943EA
:1036E000C043002264425041514162464D0D28D1F1
:1036F0000D0D07D100281FD0241940414941013A3E
:103700000D0DF9D0640006D3013000D30131002C37
:1037100001D140084000013A0BD4941CE40A04D1C2
:1037200012051144DB071944F0BDD907204B19439A
:1037300000E0D9070020F0BD0029DDD1002CDBD14D
:10374000F0BD0132C6074008CD0728434908002EC6
:10375000E1D0D9E73C2E29DA203E40371400BC40A6
:1037600000D00124F24014431A00BB401C43D3177D
:10377000ACE7AC46202F08DA20360400B4400D0038
:10378000B540F84039412843A5E73C2F0CDA203FEB
:1037900040360400B44000D00124F840044308003F
:1037A000B1400C43C117EAE710001900002494E768
:1037B0000000F07FF0B50C0D661E3605891BE60A89
:1037C0006405640D02D0651CED0A04D000200121BF
:1037D0000905803C2403A4461C0D671E3F05DB1B26
:1037E000E70A6405640D02D0651CED0A04D00022CE
:1037F00001231B05803C24037740644497B484B2C2
:1038000096B27443070C7E43150C6F4380B2684335
:10381000361802D3012000043F183004350C00197B
:103820007D41844688B29AB250430C0C62431F0C0F
:103830007C438EB27E43921902D301263604A4192A
:103840001604170C3618674101BC81B29AB2514375
:10385000040C62431B0C5C4380B25843121802D321
:103860000120000424181004130C401863412D1883
:103870005E410020474106BC88B293B258430C0C0D
:103880006343120C544389B251435B1802D30121A4
:103890000904641819041A0C091862416D1856417C
:1038A0000020474118BCF902720D1143F0026A0D65
:1038B0001043ED020A0D03D16D1940414941013B0E
:1038C000124E9B1B7600B3420ED26D0007D301301F
:1038D000002671416646354301D1400840001B0572
:1038E000C918E4072144F0BD0BDA013306D10130D9
:1038F00004D101314F0D01D04908F2E7E107002062
:10390000F0BD013631050020EBE70000FF030000A9
:10391000F0B51C0D671E3F05DB1BE70A6405640D4F
:1039200002D0661CF60A04D0002201231B05803C4D
:103930002403D0252D060026F6432E661E096E664A
:10394000CE0FF619B44649004F0D02D07E1CF60A80
:1039500003D000200021403F3F033E1BB600B4448B
:10396000013F7F05C91B49082E6F013676089C026E
:10397000950D25437543ED137543AD1301356D105A
:10398000F603761B0CB4CC02450D2C43A2B2B3B2A5
:103990005A43270C7B43350C6F43A4B26C431B196D
:1039A00002D3012424043F191C041D0CA4187D41DA
:1039B00024196D41009A91B2ACB26143170C7C435B
:1039C0002B0C5F4392B25A43A41802D30122120473
:1039D000BF182204230C52187B41019C6C431B1915
:1039E000520ED9010A434401A01A81B2B2B2514326
:1039F00003145A43360C734387B27743D617D21950
:103A000000277E4136049B191704160C7F185E416F
:103A10007316ED18F301002680337541A90F06D106
:103A20006400690AE8055B0A184309D22FE0042202
:103A3000944480337541A90AA8059B0A184326D3EC
:103A4000404149412404009A019B0D005543641BE9
:103A50004343E41A95B286B27543170C7E43030CB8
:103A60005F4392B25A43B61802D301221204BF1820
:103A70003204330C52197B4152429C41002C02D437
:103A80000022013051414008CA071043490802B0E2
:103A90006246D7079210084BD218084B9A4203D2BD
:103AA00012058918C919F0BD0020002A01DC39006F
:103AB000F0BD01331905F5E7FD030000FE07000026
:103AC000002200B5203200F004F8080000BD00001C
:103AD00000220B150AD410B5944600F031F81414E6
:103AE000013400DA0021CB17144C204700200021BC
:103AF00070476244343A0CD40C2A07DA040091402F
:103B0000904052422032D440214310BDD843D94383
:103B100010BD203207D40C4694405242203211414D
:103B2000D040204310BD0800C917203203D45242B0
:103B30002032104110BD1800190010BDF33A0010DA
:103B40000A0DCC0F531E1B05C91A520503D3C943D6
:103B5000404200D30131520D03D0531CDB0A07D081
:103B6000121B00206400611C89078912803A12032D
:103B7000014BD21A70470000FF030000514343433A
:103B8000C9188C46110C83B24B4310B4040C61432A
:103B900092B280B2504362431C041B0C001910BC4B
:103BA00059411304120CC018514161447047000080
:103BB000132310B512481C78FFF770F90100012C8F
:103BC0000AD003DD80220F4800F082F80E48FFF78C
:103BD0005DF90E4B186010BD0A4C5422200000F015
:103BE00077F80B4B6365A365E36523666366A3669D
:103BF000E36623676367A367E3672362E361E5E73F
:103C000053460000605600204C330000F45D002055
:103C1000153C001007B5604601880A0A0230DF2A09
:103C2000FAD1C9B2820804D3028840880004104344
:103C300000E00068014A5050039007BD6056002024
:103C400010B5040008F080F8002804D0034B0419D4
:103C50009C4200D810BD0248FDF702FE000004207F
:103C600088CF001010B50C0007F0C6FF002804D064
:103C7000034B04199C4200D810BD0248FDF7F0FD2B
:103C80000000042088CF001010B50C0008F052FB93
:103C9000002804D0034B04199C4200D810BD0248F0
:103CA000FDF7DEFD0000042088CF001010B508F0FD
:103CB00055F810BD01480421014B1847900400201D
:103CC000AD2E0010014B1B68184700009004002027
:103CD000014B5B681847000090040020030010B5FA
:103CE000080011001B68984710BDC046030010B5BE
:103CF000080011001B68984710BDC046F0B5DE46AD
:103D000057464E464546E0B585B017001C000600F4
:103D10000D00FDF787F80023304A12184B41002BA5
:103D200058DB2F4908008A4608F0CEFF01906B1C33
:103D300003D1300008F00AFD0500002C25D1294BE5
:103D40009846294B1C68002C15D0002F20D1274FF6
:103D500002E02469002C0ED02368002BF9D03B68C8
:103D6000002B01D0A342F4D120002A003100C0472B
:103D70002469002CF0D1019B002B27D105B0F0BCA9
:103D8000BB46B246A946A046F0BD194B9846D8E7B7
:103D9000164B994602ABDF1D0A239B4602E02469BD
:103DA000002CE8D02368002BF9D04B461B68002B71
:103DB00001D0A342F3D12A0031002000C0475B4666
:103DC0000122390020003B70C047E8E7504608F068
:103DD0005BFFD3E70122074B5242A2E740420F00AC
:103DE000440F0020ED3C0010305D0020345D0020C9
:103DF000DD3C0010FFFFFF7FF0B5CE46474680B5A3
:103E000083B06B460600DD1D2870FDF70BF800231C
:103E10001A4A12184B41002B2BDB1949080088461F
:103E200008F052FF174B81461C68002C14D0164F27
:103E300002E02469002C0FD02368002BF9D03B68E6
:103E4000002B01D0A342F4D1200001222900FFF76A
:103E50004DFF2469002CEFD14B46002B05D13000DB
:103E600003B0C0BCB946B046F0BD404608F00CFFF8
:103E7000F5E70122054B5242CFE7C04640420F0012
:103E8000440F0020305D0020345D0020FFFFFF7FE5
:103E900070B5040008F05AFC00230100050001225F
:103EA0002000FFF72BFF084B1C68002C06D063682E
:103EB000002B05D098472469002CF8D1280070BD4C
:103EC0002469002CF3D1F9E7305D002010B50248D9
:103ED00000F004F810BDC046B05D002030B50025EC
:103EE00089B004000922002101A80095FFF7EAFE2D
:103EF0000922002105A80495FFF7E4FE4B236A463A
:103F00006846137004A90D2208F0B6FE1521082298
:103F100020006944FFF7DCFE09B030BDF0B5C646AD
:103F200000B506000F0090461C0086B0002835D072
:103F3000002B33D003F018FF23006A4605900C33A2
:103F400003CB03C205A821686268A36803F00EFFD3
:103F5000051E1CD102AD280003F03AFD33003800E5
:103F600006CD06C33300414605AA03F0B3FD051E86
:103F700016D1310022000320B4600C3104F0AAFAFB
:103F8000051E0DD105A803F045FF002801D000F063
:103F900099F8280006B080BCB846F0BD0B25F8E7BC
:103FA00000F090F805A803F035FF0028F1D0EEE707
:103FB000F0B54746CE4680B504000E00170098467F
:103FC0009FB0002827D0002925D0002A23D0002B1D
:103FD00021D002AD280003F0BDFF23002A0003CA50
:103FE00003C31000914604F029F9280003F0B2FF42
:103FF000230006CD06C34B46200000933A004346FB
:10400000310003F0AFFF041E07D120001FB0C0BC79
:10401000B946B046F0BD0B24F7E700F053F800F0C6
:1040200051F8F2E710B5FFF71DFE10BD10B5FFF710
:104030002BFE10BD10B5FFF739FE10BD10B5FFF710
:10404000FFFD10BD020030B5024B32CB32C212CBA5
:1040500012C230BDF0CF0010020030B5024B32CB9F
:1040600032C212CB12C230BDA004002000280DD0F5
:104070000368002B0AD04368002B07D0C368002BCD
:1040800004D08068431E9841C0B200E00020704711
:10409000084B1B78002B09D0074B1A78002A02D056
:1040A000064B1878704701321A70F9E7044B1878FC
:1040B000F8E7C046B15E0020B25E0020385D002007
:1040C00004D000100021084B00201980002100229C
:1040D0009860D960054B06491A700978054B19702C
:1040E000054B1A707047C04650550020B25E002044
:1040F0001CD50010385D0020B15E0020F0B5D6461A
:104100004F46464604000D00C0B5002804D00068A4
:1041100000F00EFB002806D101242000E0BCBA46C6
:10412000B146A846F0BD6368002BF5D0002DF3D052
:10413000286800F0FDFA0028EED06C68002CEBD067
:104140008027E359606A984604F0E0FFE359E226CD
:104150001869A8239B009C46B600815960444A78A0
:104160000B7812021A438B78C9781B041343090693
:104170006269194301F08CFAE35982461869A82351
:104180009B009C46815960444A780B7812021A437E
:104190008B78C9781B04134309062269194301F07F
:1041A00077FA434604001869E4239B009946524677
:1041B0008159C35800F09AFA4346070018694B46E4
:1041C0002200C358815900F091FA384004000123BD
:1041D0005C402800E4B2640000F0BAF99DE7C046F4
:1041E000F0B5C6460500170000B5002A18D0037BBD
:1041F000002B15D1036043600223FF33838100232A
:10420000C8220C000026984682602100280004F095
:104210000FFD43460136A4602373C834B742F4D17E
:1042200080BCB846F0BDC046F0B5C64605001700D4
:1042300000B5002A18D0037B002B15D10360436022
:104240000223FF3383810023C8220C0000269846F6
:1042500082602100280004F0EBFC43460136A46094
:104260002373C834B742F4D180BCB846F0BDC04611
:10427000F0B5C6460500170000B5002A18D0037B2C
:10428000002B15D1036043600223FF338381002399
:10429000D8220C000026984682602100280004F0F5
:1042A000C7FC43460136A4602373D834B742F4D127
:1042B00080BCB846F0BDC046F0B5C6460500170044
:1042C00000B5002A18D0037B002B15D10360436092
:1042D0000223FF3383810023D8220C000026984656
:1042E00082602100280004F0A3FC43460136A4604C
:1042F0002373D834B742F4D180BCB846F0BDC04671
:10430000F0B5C6460500170000B5002A18D0037B9B
:10431000002B15D1036043600223FF338381002308
:10432000A4220C000026984682602100280004F098
:104330007FFC43460136A4602373A434B742F4D112
:1043400080BCB846F0BDC046F0B5C64605001700B3
:1043500000B5002A1AD0037B002B17D103604360FD
:104360000223FF33838100230C0000269846094A6C
:1043700082602100280004F05BFC43462373054B58
:1043800001369C46A4606444B742F2D180BCB84672
:10439000F0BDC046A8150000F0B5C64605001700E0
:1043A00000B5002A18D0037B002B15D103604360B1
:1043B0000223FF33838100231C220C000026984631
:1043C00082602100280004F033FC43460136A460DB
:1043D00023731C34B742F4D180BCB846F0BDC0464C
:1043E000F0B5C6460500170000B5002A1CD0037BB7
:1043F000002B19D1036043600223FF338381002324
:1044000084220C00002698461201826021002800B8
:1044100004F00EFC4346237384231B019C460136A3
:10442000A4606444B742F1D180BCB846F0BDC04638
:10443000F0B5C6460500170000B5002A18D0037B6A
:10444000002B15D1036043600223FF3383810023D7
:104450002C220C000026984682602100280004F0DF
:10446000E7FB43460136A46023732C34B742F4D1F2
:1044700080BCB846F0BDC046F0B5C6460500170082
:1044800000B5002A18D0037B002B15D103604360D0
:104490000223FF33838100231C220C000026984650
:1044A00082602100280004F0C3FB43460136A4606B
:1044B00023731C34B742F4D180BCB846F0BDC0466B
:1044C000F0B5C6460500170000B5002A18D0037BDA
:1044D000002B15D1036043600223FF338381002347
:1044E00020220C000026984682602100280004F05B
:1044F0009FFB43460136A46023732034B742F4D1B6
:1045000080BCB846F0BDC04610B5034B0100180092
:1045100004F08EFB10BDC046E45D002070B50400C1
:104520000068002806D0084B196808F0CBF800286E
:1045300009D120606168002905D0002503480D617C
:1045400004F076FB656070BD44D70010805D0020EC
:1045500010B504000068002806D0084B196808F060
:10456000B1F8002808D120606168002904D004480F
:1045700004F05EFB0023636010BDC04644D700100A
:10458000A05D002010B504000068002806D0084B8C
:10459000196808F097F8002808D1206061680029A0
:1045A00004D0044804F044FB0023636010BDC046FF
:1045B00044D70010305E002010B5040000680028C9
:1045C00006D0084B196808F07DF8002808D1206053
:1045D0006168002904D0044804F02AFB00236360CA
:1045E00010BDC04644D70010D45D002010B50400B3
:1045F0000068002806D0084B196808F063F8002806
:1046000008D120606168002904D0044804F010FB40
:104610000023636010BDC04644D70010E858002056
:1046200010B504002100034804F002FB0023A3613D
:1046300010BDC046505E002082B0F8B50692274AF1
:104640000400176894460793002F3FD038000021DC
:10465000234D826840685259A21A56427241891805
:104660000028F6D106AA1278022A27D006D90020FF
:10467000032A03D0F8BC08BC02B01847002B21D095
:104680008B421FD80020002FF4D00126154D14496D
:10469000764202E07F68002FECD0BB685A58944203
:1046A000F8D1114A944663440CCB9D4202DCF1D10F
:1046B0009642EFD916001D003800EBE7002B01D021
:1046C0008B42D7D9604604F09FFAD3E706AA127846
:1046D000022AF7D00021022AC9D8F3E7205E002081
:1046E00014080000FFFFFF7F1808000030B50E25FA
:1046F00087B06D442A801C008B78012B10D0A82332
:104700009B009C460123009316332A00210060443D
:104710006B4401F09BFD002800D0012007B030BDA4
:10472000A8239B009C46604401F096F90120F5E720
:1047300010B504000020002C08D004F091FA01000C
:10474000200007F0BFFF43425841C0B210BDC04631
:1047500010B50400006807F0B5FF434258414042DD
:104760000440200010BDC04604480368002B00D060
:104770007047034B1B680360FAE7C046B40400208F
:104780005C050020024A034B12681A607047C0465D
:104790005C050020B404002010B504F093FF10BDA8
:1047A00010B504F093FF10BD04480368002B00D03F
:1047B0007047034B1B680360FAE7C046D40400202F
:1047C0006005002010B50121002000F0EFFE01304F
:1047D00010BDC04610B5002902D000F041F810BD50
:1047E0000020FCE70B0010B5002805D001211800BF
:1047F00000F0DCFE013010BD0020FCE7030010B526
:104800000800002B03D0197800F014F810BD002028
:10481000FCE7C04610B5002805D00121002000F0BB
:10482000C5FE013010BD0020FCE7C04600487047BF
:104830002805002070B50D000121040000F06AFE7B
:10484000002809D0A3681D70A3680133A360236901
:1048500001332361012363750123A07D584070BD9E
:1048600070B50D000121040000F054FE00280BD0AB
:10487000A3681A780133511E8A412A70A360236904
:1048800001332361012363750123A07D584070BD6E
:1048900070B50D000121040000F03CFE002809D095
:1048A000A3681D70A3680133A360236901332361EA
:1048B000012363750123A07D584070BD70B50D00C4
:1048C0000121040000F026FE00280AD0A3681B780E
:1048D0002B70A3680133A360236901332361012393
:1048E00063750123A07D584070BDC046F0B5CE462B
:1048F000474680B583B06B460400D98002219D1DD8
:1049000000F05CFE637D01002000984600F0A0FEF0
:104910000221200000F0F2FD002828D16368A6687B
:10492000B3421ED99F1BA36023692000DB192361BA
:104930000223DB1B1900994600F0ECFD002834D05F
:10494000237D012B3AD06B7833702B787370A3687A
:104950004B44A36023690233DB1B2361022363758D
:1049600016E00221200000F0D5FD002810D0237DA4
:10497000A068012B14D06B780370A3682A785A7052
:10498000A3680233A36023690233236102236375A2
:104990000123A07D584003B0C0BCB946B046F0BD6D
:1049A00002222900FFF794F9EAE7A368DB1BA36062
:1049B0002369DB1B236143466375E9E73A0029005D
:1049C0003000FFF785F94A46A068E919FFF780F93A
:1049D000BDE7C046F0B5D64646464F46C0B582B0A4
:1049E0006B4604000E0002219D1D2A8000F0E6FDAA
:1049F000637D01002000984600F02AFE022120007D
:104A000000F07CFD002829D16368A768BB421FD94C
:104A1000DA1B9146A360236920004B4423610223E3
:104A20009B1A19009A4600F075FD002834D0012E1B
:104A30003CD06B783B702B787B704A46A36853441C
:104A4000A360236902339B1A23610223637515E077
:104A50000221200000F05EFD00280FD0A068012E8A
:104A600015D06B780370A3682A785A70A368023354
:104A7000A360236902332361022363750123A07DB0
:104A8000584002B0E0BCBA46B146A846F0BD02228A
:104A90002900FFF71DF9E9E74A46A3689B1AA360BE
:104AA00023699B1A236143466375E7E74A46290059
:104AB0003800FFF70DF929005246A0684944FFF776
:104AC00007F9BAE7F8B5CE464746040080B50D00B1
:104AD000022100F073FD637D01002000984600F084
:104AE000B7FD0221200000F009FD002828D16368ED
:104AF000A668B3421ED99F1BA36023692000DB195F
:104B000023610223DB1B1900994600F003FD0028F6
:104B100033D0237D012B39D073782B7033786B70B1
:104B2000A3684B44A36023690233DB1B2361022388
:104B3000637516E00221200000F0ECFC002810D084
:104B4000237DA168012B13D04B782B70A3681B78B1
:104B50006B70A3680233A3602369023323610223CD
:104B600063750123A07D5840C0BCB946B046F8BD6E
:104B700002222800FFF7ACF8EBE7A368DB1BA36079
:104B80002369DB1B236143466375EAE73A00310082
:104B90002800FFF79DF84A46A168E819FFF798F842
:104BA000BEE7C046F0B5D64646464F460400C0B5FF
:104BB0000E000221150000F001FD637D01002000C0
:104BC000984600F045FD0221200000F097FC0028E7
:104BD00029D16368A768BB421FD9DA1B9146A3603D
:104BE000236920004B44236102239B1A19009A4633
:104BF00000F090FC002833D0012E3BD07B782B7046
:104C00003B786B704A46A3685344A3602369023320
:104C10009B1A23610223637515E00221200000F036
:104C200079FC00280FD0A168012E14D04B782B708E
:104C3000A3681B786B70A3680233A36023690233F7
:104C40002361022363750123A07D5840E0BCBA466E
:104C5000B146A846F0BD02222800FFF739F8EAE77E
:104C60004A46A3689B1AA36023699B1A23614346A3
:104C70006375E8E74A4639002800FFF729F828005D
:104C80005246A1684844FFF723F8BBE7F0B5C64693
:104C900000B582B004000191042100F08FFC637D17
:104CA00001002000984600F0D3FC0421200000F011
:104CB00025FC002831D16368A568AB4227D90427B9
:104CC0005E1BA3602369BF1B9B1939002000236171
:104CD00000F020FC002844D0237D012B4FD001ABF5
:104CE000DA782A709A786A70012E43D05A78AA70BE
:104CF0000335022E41D01B782B70A368DB19A3600B
:104D0000236904339B1B2361042363751DE0042185
:104D1000200000F0FFFB002817D0237DA068012BA6
:104D20001AD001ABDA7802709978A2685170A26843
:104D300059789170A2681B78D370A3680433A3607C
:104D4000236904332361042363750123A07D584044
:104D500002B080BCB846F0BD042201A9FEF7B8FF3E
:104D6000EBE7A3689B1BA36023699B1B236143465E
:104D70006375EAE7A26859781170A568BBE701ABD3
:104D80009846320019002800FEF7A2FF43463A0079
:104D9000A0689919FEF79CFFAFE7C046F0B5CE4674
:104DA000474680B5040083B00D000421019200F055
:104DB00005FC637D01002000984600F049FC0421B9
:104DC000200000F09BFB002831D16368A668B34245
:104DD00027D99F1BA36023692000DB1923610423CB
:104DE000DB1B1900994600F095FB002843D0012DEC
:104DF0004FD001ABDA7832709A787270012F43D0BD
:104E00005A78B2700336022F41D01B783370A368F2
:104E10004B44A36023690433DB1B236104236375C4
:104E20001CE00421200000F075FB002816D0A068CB
:104E3000012D1BD001ABDA7802709978A26851700D
:104E4000A26859789170A2681B78D370A368043364
:104E5000A360236904332361042363750123A07DC8
:104E6000584003B0C0BCB946B046F0BD042201A909
:104E7000FEF72EFFEAE7A368DB1BA3602369DB1BB9
:104E8000236143466375E9E7A26859781170A66803
:104E9000BBE701AD3A0029003000FEF719FF4A4692
:104EA000A068E919FEF714FFB1E7C046F8B5CE4691
:104EB0004746040080B50D00042100F07FFB637DB0
:104EC00001002000984600F0C3FB0421200000F000
:104ED00015FB002831D16368A668B34227D99F1B10
:104EE000A36023692000DB1923610423DB1B190065
:104EF000994600F00FFB002842D0237D012B4ED0B5
:104F0000F3782B70B3786B70012F42D07378AB704D
:104F10000335022F41D033782B70A3684B44A36034
:104F200023690433DB1B2361042363751CE0042124
:104F3000200000F0EFFA002816D0237DA168012B95
:104F400019D0CB782B70A3689B786B70A3685B78C3
:104F5000AB70A3681B78EB70A3680433A36023696C
:104F600004332361042363750123A07D5840C0BC32
:104F7000B946B046F8BD04222800FEF7A9FEEBE7CB
:104F8000A368DB1BA3602369DB1B236143466375B6
:104F9000EAE7A3685B78AB700335A668BBE73A0025
:104FA00031002800FEF794FE4A46A168E819FEF792
:104FB0008FFEB2E7F0B5D64646464F460400C0B570
:104FC0000E000421150000F0F9FA637D01002000B5
:104FD000984600F03DFB0421200000F08FFA0028E5
:104FE00034D16368A768BB422AD9DA1B9146A36013
:104FF000236920004B44236104239B1A19009A461D
:1050000000F088FA002844D0012E52D0FB782B7093
:10501000BB786B704B46012B45D07B78AB704B4611
:105020000335022B43D03B782B704A46A368534488
:10503000A360236904339B1A2361042363751BE077
:105040000421200000F066FA002815D0A168012E86
:105050001AD0CB782B70A3689B786B70A3685B78B1
:10506000AB70A3681B78EB70A3680433A36023695B
:1050700004332361042363750123A07D5840E0BC01
:10508000BA46B146A846F0BD04222800FEF720FE2D
:10509000EAE74A46A3689B1AA36023699B1A236127
:1050A00043466375E8E7A3685B78AB700335A76890
:1050B000B9E74A4639002800FEF70AFE28005246A2
:1050C000A1684844FEF704FEAFE7C046F0B5C64607
:1050D00000B5040082B008210092019300F06EFA3E
:1050E000637D01002000984600F0B2FA08212000FC
:1050F00000F004FA002842D16368A568AB4238D9B1
:1051000008275E1BA3602369BF1B9B193900200081
:10511000236100F0FFF9002861D0237D012B00D12D
:1051200077E06B46DA792A709A796A70012E5FD03F
:105130005A79AA70022E5ED01A79EA70032E5DD0D9
:10514000DA782A71042E5CD09A786A71052E5BD0C9
:105150005A78AA710735062E59D01B782B70A36890
:10516000DB19A360236908339B1B23610823637544
:1051700029E00821200000F0CDF9002823D0237D6C
:10518000A068012B26D06B46DA7902709979A26863
:1051900051705979A26891701979A268D170D97843
:1051A000A26811719978A2685171A26859789171B9
:1051B000A2681B78D371A3680833A36023690833FE
:1051C0002361082363750123A07D584002B080BC91
:1051D000B846F0BD08226946FEF77AFDEBE7A36802
:1051E0009B1BA36023699B1B236143466375EAE70E
:1051F000A26859791170A26819791170A268D978DA
:105200001170A26899781170A26859781170A56818
:10521000A3E7E846320041462800FEF759FD434621
:105220003A00A0689919FEF753FD98E7F0B5CE460D
:10523000474680B583B06B460400D98002219D1D8E
:1052400000F0BCF9637D01002000984600F000FAF0
:105250000221200000F052F9002828D16368A668D6
:10526000B3421ED99F1BA36023692000DB19236171
:105270000223DB1B1900994600F04CF9002834D0BA
:10528000237D012B3AD06B7833702B787370A36831
:105290004B44A36023690233DB1B23610223637544
:1052A00016E00221200000F035F9002810D0237DFF
:1052B000A068012B14D06B780370A3682A785A7009
:1052C000A3680233A3602369023323610223637559
:1052D0000123A07D584003B0C0BCB946B046F0BD24
:1052E00002222900FEF7F4FCEAE7A368DB1BA360B7
:1052F0002369DB1B236143466375E9E73A00290014
:105300003000FEF7E5FC4A46A068E919FEF7E0FC2C
:10531000BDE7C046F8B5CE464746040080B50D004F
:10532000022100F04BF9637D01002000984600F057
:105330008FF90221200000F0E1F8002828D16368ED
:10534000A668B3421ED99F1BA36023692000DB1906
:1053500023610223DB1B1900994600F0DBF80028CB
:1053600033D0237D012B39D073782B7033786B7059
:10537000A3684B44A36023690233DB1B2361022330
:10538000637516E00221200000F0C4F8002810D058
:10539000237DA168012B13D04B782B70A3681B7859
:1053A0006B70A3680233A360236902332361022375
:1053B00063750123A07D5840C0BCB946B046F8BD16
:1053C00002222800FEF784FCEBE7A368DB1BA36046
:1053D0002369DB1B236143466375EAE73A0031002A
:1053E0002800FEF775FC4A46A168E819FEF770FC34
:1053F000BEE7C046F8B5CE464746040080B50D006E
:10540000042100F0DBF8637D01002000984600F0E5
:105410001FF90421200000F071F8002831D16368E1
:10542000A668B34227D99F1BA36023692000DB191C
:1054300023610423DB1B1900994600F06BF8002858
:1054400042D0237D012B4ED0F3782B70B3786B7054
:10545000012F42D07378AB700335022F41D03378DF
:105460002B70A3684B44A36023690433DB1B2361C7
:10547000042363751CE00421200000F04BF8002891
:1054800016D0237DA168012B19D0CB782B70A3688F
:105490009B786B70A3685B78AB70A3681B78EB702C
:1054A000A3680433A3602369043323610423637571
:1054B0000123A07D5840C0BCB946B046F8BD0422C7
:1054C0002800FEF705FCEBE7A368DB1BA36023695C
:1054D000DB1B236143466375EAE7A3685B78AB7027
:1054E0000335A668BBE73A0031002800FEF7F0FB61
:1054F0004A46A168E819FEF7EBFBB2E7827D03009C
:105500000020002A05D19A685B68521893424041F6
:10551000C0B2704710B50400807D00280FD1A2688A
:1055200063689A420DD3A369002B0CD02000E16977
:105530009847020001205040C0B2A27500E0002050
:1055400010BD0120FCE70122A275F9E78161C2616B
:105550007047C04630B503AD10CD8A180160C360F6
:105560000919E41800232D784260057581600461F3
:10557000437583758361C36130BDC04610B5012496
:1055800082B00194049C0094FFF7E4FF02B010BDC8
:1055900010B5002482B00094FFF7F0FF02B010BDF8
:1055A00010B50023FFF7F4FF10BDC04610B50C0086
:1055B000FDF7C6FC601E611A084010BD10B5427DA3
:1055C00003000C0000208A4205D21869FDF7B8FCE0
:1055D000601A013C204010BD70B504000D00FFF7BB
:1055E000EDFF236962681B182361A36818188242C3
:1055F00000D210006575A06070BDC0468368006869
:10560000181A704743688068181A704770B5837D10
:1056100004000D00002B0DD1826843689A420BD321
:10562000002909D08369002B0FD0C1699847A07564
:10563000002801D0002070BD2000FFF7E3FF030029
:1056400028009D42F7D91800F5E701338375F1E78B
:1056500070B504000D00FFF751FF00280FD0A368BC
:105660005B19A36023695B1923610123637570BD16
:10567000A3682D1A1B18A36023691B18236101223C
:1056800029002000FFF7C2FF0028F1D1EDE7C04656
:10569000002330B58FB001930333029200930422AC
:1056A00006AB040001F03EF80025002802D12800D6
:1056B0000FB030BD0299200005AA01F073F905A9C9
:1056C000050006A802F004F8F1E7C04630B58DB039
:1056D00003910292110C10AA04001078CAB20021A2
:1056E000012A01D11A4011000E33CA18012301907A
:1056F00000932000039992B204AB01F013F8002547
:10570000002802D128000DB030BD02992000119A66
:1057100001F048F91199050004A801F039FFF1E7FB
:1057200070B505008420174C8000A54411AC2352AD
:10573000032302929AAA039102CA6846167823723A
:105740000122002322710375002919D002770891E4
:10575000802215A9920009A8FFF722FF05A909A830
:1057600001F044FD0D9B2800E360029A03999BB26F
:1057700001940096FFF7AAFF96239B009D4470BDFD
:105780000177E5E7A8FDFFFF82B001AB99705B8868
:105790001B04184302B070470F2310B5447882B041
:1057A00001A9234002788B704B88120120091B0449
:1057B0008018184302B010BD83B200031A09000F0D
:1057C0001B0182B0C0180A70487002B07047C04612
:1057D00010B58AB00100042202A8FFF7E1FE6B4673
:1057E0006A4601AC05332100063202A801F076FAC0
:1057F000237800200D2B04D16B4658798007C00F09
:1058000001300AB010BDC046F0B51B4C0F00A544D6
:1058100003AE0400082200213000FEF753FAA42250
:1058200010AD920000212800FEF74CFA310038003C
:1058300001F03AFF338820002B8001F0ABF8002301
:105840000C22009005A908A8FFF798FE290008A8D7
:1058500001F0A2FF089B00220021200001F03EF889
:1058600008A8FFF7CBFE236F020009CB05A99847D4
:10587000B5239B009D44F0BD2CFDFFFFF0B5160045
:1058800093B005000F0001F085F87400A419E4003E
:10589000009005A90AA8002311225034FFF76EFEDC
:1058A0002C19052200230A210AA801F0FDF903A9F9
:1058B000200004F09FFB6B4640BAD88103A90AA8D8
:1058C0001F7401F0CDFF0A9B00220021280001F087
:1058D00005F80AA8FFF792FE2B6F020009CB05A975
:1058E000984713B0F0BDC04670B500230167802112
:1058F00043678367C36743500431435004314350C7
:105900000431435004314350050004314350040036
:1059100000210020983528606960A0212000635490
:105920001F3900F047FF2000083001F0BBF870BDC0
:105930008023C1500433C2507047C0468823C150F1
:105940000433C2507047C046A423C1500433C25030
:105950007047C046AC23C1500433C2507047C046A4
:1059600070B582B004000D00160001F013F80300BA
:10597000200032002900083001F0DEF8FF24020088
:10598000030A010C234022401B02214009041A4350
:105990000A43030E10001B06184302B070BDC04638
:1059A000F0B5040085B00D0016001F0000F0F2FFF6
:1059B00008343B00320029000090200001F0DCF8A0
:1059C000FF240200030A010C234022401B02214055
:1059D00009041A430A43030E10001B06184305B0BE
:1059E000F0BDC04610B5083082B001F0EBF8FF24DE
:1059F0000200030A010C234022401B02214009043B
:105A00001A430A43030E10001B06184302B010BDD0
:105A100010B50B4C84B00094083001F0F5F8FF2469
:105A20000200030A010C234022401B02214009040A
:105A30001A430A43030E10001B06184304B010BD9E
:105A4000D157001010B5040001F094F99834226881
:105A50006368801A994110BDF0B5DE4657464E4640
:105A60004546E0B5037E040085B0002B34D0082302
:105A70009A466B469D1C03AB994602AB002698469E
:105A8000824401AF07E010239C460136237EF6B224
:105A9000E244B34220D901220121300000F0B2FFDC
:105AA0002B0038604A464146504604F045FB00282A
:105AB000E9D02000029B2A88397800F00FFF236F7D
:105AC000039A09CB0299984710239C460136237EFE
:105AD000F6B2E244B342DED84823E35C002B2FD079
